:1000000048EF1FF00000000000EF00F000000000CB
:0A0010000000000000000000F3D71C
:10001C000B820BAE18EF00F00368026801680068F1
:08002C000A360232FF0E120039
:0E003400026A016A006A086A036A000E12007E
:100042000B840BAE2CEF00F0010E036E026A016A04
:0A005200006A0A360232FF0E1200A7
:08005C000AAE029E000E120024
:100064000CB074EF00F00CA21AEF01F00E6A000E4F
:1000740002648BEF00F0F00E0214D8A456EF00F0E7
:10008400023A01380F0B02260138F00B016E0038DA
:100094000F0B01260038F00B006E08380F0B0026FA
:1000A4000838F00B086E0E84D89002BE6FEF00F093
:1000B40008360036013602360E2A02BE6FEF00F013
:1000C40008360036013602360E2A02BE6FEF00F003
:1000D40008360036013602360E2A0E50036410EF3D
:1000E40001F0035E0BBC08AE15EF01F0D880800E62
:1000F40008640030000E002201220222D8A015EF6D
:1001040001F0023201320032034A1AEF01F015EF16
:1001140001F001C002F000C001F008C000F0086A5C
:10012400000E0E860264C2EF00F0F00E0214D8A492
:10013400AAEF00F0023A01380F0B02260138F00B47
:10014400016E00380F0B01260038F00B006E0E8490
:10015400D89002BE6FEF00F00036013602360E2A48
:1001640002BE6FEF00F00036013602360E2A02BEE0
:100174006FEF00F00036013602360E2A6FEF00F002
:1001840001C002F000C001F0006A000E0E960E8855
:100194000264EFEF00F0F00E0214D8A4DAEF00F0DE
:1001A400023A01380F0B02260138F00B016E0E845F
:1001B400D89002BE6FEF00F0013602360E2A02BE5E
:1001C4006FEF00F0013602360E2A02BE6FEF00F028
:1001D400013602360E2A6FEF00F001C002F0016A08
:1001E400000E0E8602641FEF01F0F00E0214D8A474
:1001F400FEEF00F0023A0E84D89002BE6FEF00F0DA
:1002040002360E2A02BE6FEF00F002360E2A02BE3C
:100214006FEF00F002360E2A6FEF00F0010E0C6E45
:100224000EDF22EF01F0020E0C6E16DF22EF01F05A
:10023400040E0C6EF1DE22EF01F0080E0C6EF8DEF7
:020244001200A6
:0A024600210E0D6E0D2EFED71200E2
:10025000025006180E6E086A096A0B6A035007649A
:100260001BEF02F006500A6E068E028E03500B6ED4
:100270000750036E000E0B646BEF01F00B50075E2E
:10028000D8B40CEF02F0070E0764DAEF01F0075E56
:1002900000C008F001C000F002C001F0026A074E81
:1002A0000CEF02F00764AFEF01F0075E00C008F04A
:1002B00001C000F0016A074E0CEF02F007648DEFF9
:1002C00001F0075E00C008F0006A074E0CEF02F074
:1002D000076474EF01F00AC002F005C001F004C029
:1002E00000F0086A35EF03F0030E07647FEF01F0BA
:1002F000075E08380F0B086E074E0CEF02F0D8901F
:100300000832074E0CEF02F0D8900832074E0CEF7F
:1003100002F0D89008320CEF02F0030E07649EEF53
:1003200001F0075E08380F0B086E0038F00B082646
:1003300000380F0B006E074E0CEF02F0D890003221
:100340000832074E0CEF02F0D89000320832074E08
:100350000CEF02F0D890003208320CEF02F0030EDE
:100360000764C6EF01F0075E08380F0B086E00380F
:10037000F00B082600380F0B006E0138F00B00263A
:1003800001380F0B016E074E0CEF02F0D8900132CE
:1003900000320832074E0CEF02F0D89001320032E2
:1003A0000832074E0CEF02F0D890013200320832CA
:1003B0000CEF02F0030E0764F7EF01F0075E083858
:1003C0000F0B086E0038F00B082600380F0B006E7C
:1003D0000138F00B002601380F0B016E0238F00BCC
:1003E000012602380F0B026E074E0CEF02F0D89078
:1003F0000232013200320832074E0CEF02F0D89080
:100400000232013200320832074E0CEF02F0D8906F
:100410000232013200320832096A000E0EAE00EFDD
:1004200003F0081E001E011E021E082A00220122DF
:10043000022200EF03F00750D8A421EF02F035EFBD
:1004400003F0096A02C00AF0028E068E0750035CB0
:10045000076ED8B4F3EF02F0070E0764C1EF02F0A5
:10046000075E0450096E0550046E0650056E066A5C
:10047000074EF3EF02F0070E076496EF02F0075EF7
:100480000450096E0550046E056A074EF3EF02F042
:10049000070E076474EF02F0075E0450096E046AE9
:1004A000074EF3EF02F0070E07645BEF02F00AC09D
:1004B00002F035EF03F0030E076466EF02F0075E0B
:1004C00009380F0B096E074EF3EF02F0D89009328E
:1004D000074EF3EF02F0D8900932074EF3EF02F027
:1004E000D8900932F3EF02F0030E076485EF02F0B3
:1004F000075E09380F0B096E0438F00B0926043823
:100500000F0B046E074EF3EF02F0D890043209325D
:10051000074EF3EF02F0D89004320932074EF3EFA2
:1005200002F0D89004320932F3EF02F0030E0764B0
:10053000ADEF02F0075E09380F0B096E0438F00BBF
:10054000092604380F0B046E0538F00B0426053815
:100550000F0B056E074EF3EF02F0D8900532043210
:100560000932074EF3EF02F0D89005320432093217
:10057000074EF3EF02F0D890053204320932F3EF60
:1005800002F0030E0764DEEF02F0075E09380F0B7E
:10059000096E0438F00B092604380F0B046E053879
:1005A000F00B042605380F0B056E0638F00B0526F8
:1005B00006380F0B066E074EF3EF02F0D8900632A6
:1005C000053204320932074EF3EF02F0D8900632BA
:1005D000053204320932074EF3EF02F0D8900632AA
:1005E000053204320932086A000E0EAE00EF03F045
:1005F000091E041E051E061E092A042205220622C3
:1006000009500826045000220550012206500222FB
:100610000EBE17EF03F0D8A026EF03F0023201322E
:1006200000320832033E26EF03F030EF03F0D8B07B
:100630002BEF03F0000E081E001E011E021E082AEA
:100640000022012202220A7E2BEF03F0010E0C6E23
:1006500009DD37EF03F0020E0C6E04DD37EF03F017
:10066000040E0C6EDBDC37EF03F0000E0C6E120094
:100670000F0E0C6E470E0D6E0D2EFED70C2EFCD7F6
:0606800000000000120062
:10068600086A080E0C6E003408360450085ED8B0AE
:0E06960002D00826D89000360C2EF5D71200A0
:0606A4000000000012003E
:1006AA000D6A086A0050D8B4000C04180A6E0ABE13
:1006BA000D1E0B6A04AE02D0041E042A00AE02D03C
:1006CA00001E002A005004100A6E0ABE1FD00450F1
:1006DA00085E003600340836045008260036060E36
:1006EA000C6E00340836045000B0085E00A00826DC
:1006FA0000360C2EF6D700A008260BB015D00DAE8A
:10070A00000C001E002A081E082A000C04AE09D09C
:10071A0000BE04D00050086E006AF1D7006A002AB1
:10072A00000C001E0B2AD3D7082A0450085CD8A450
:0E073A00E6D7086A002A00AEE2D7FF0C1200D4
:100748000134083609360450085E0550D8A0053C27
:10075800095E003601360F0E0C6E01340836093674
:10076800045000A006D0085E0550D8A0053C095EDC
:1007780005D008260550D8B0053C092600360136B4
:100788000C2EEBD700B006D0045008260550D8B080
:08079800053C092600001200D7
:1007A000086A096A000E0762036455EF04F00250FC
:1007B00006180A6E075003267E0ED8A0E6EF03F057
:1007C000035ED8B05AEF04F0EAEF03F0035ED8A05E
:1007D0005FEF04F0028E068E02C00EF001C00BF037
:1007E00000C00DF000500402F4CF0CF001500502DF
:1007F000F4CF00F0F3CF08F00402F3500C26F450CD
:100800000822000E00220D500502F3500C26F45071
:100810000822000E002202500402F3500826F45071
:10082000002202500502016A000E0122F350002648
:10083000F45001220D500602F3500826F450002215
:10084000026A000E012202220B500602F35000261B
:10085000F4500122000E02220E500602F35001262F
:10086000F450022202BE3DEF04F008360036013695
:1008700002360306D8B45FEF04F050EF04F0D880DE
:10088000800E08640030000E002201220222D8A04F
:1008900050EF04F0023201320032034A5AEF04F002
:1008A0000AAE029E000E62EF04F0010E1AEC00F098
:1008B00062EF04F0020E0EEC00F062EF04F0040EA2
:0608C00021EC00F0120023
:1008C6000B800BAE6FEF04F0026A0AAEFF0E026EEB
:0C08D600016E006E0A360232FF0E1200A6
:0808E2000B6A0B86FF0E1200E9
:1008EA000B6A0C6A086A0350D8B4F9EF04F002C024
:1008FA000AF0028E9E0E035E03AEE9EF04F0036C6B
:10090A00080E035CD8A0B6EF04F0036E083600C0E8
:10091A0008F001C000F002C001F0026A080E035C90
:10092A00D8A0B6EF04F0036E083600C008F001C084
:10093A0000F0016A080E035CD8A0B6EF04F0036E5B
:10094A00083600C008F0006A080E035CD8A0B6EFAB
:10095A0004F0036E0836086A0350D8A4D890C2EF90
:10096A0004F00350D8B4C2EF04F0D8900232013236
:10097A0000320832032EBAEF04F00BBC08A0D3EF02
:10098A0004F0D8A0D3EF04F0082AD8B4002AD8B4C7
:10099A00012AD8B4022A02BEFDEF04F00AAEF9EF2A
:1009AA0004F0021E011E001E081E082AD8B4002ADE
:1009BA00D8B4012AD8B4022AF9EF04F0026A016A0B
:1009CA00006A086AF9EF04F00B800BAE03EF05F03A
:1009DA00026A0AAE03EF05F0026E016E006E086E3F
:1009EA000A36023203EF05F00C6A000E04EF05F036
:1009FA00010E0C6E000E62DF04EF05F0FF0E0250CE
:100A0A00036E0150026E0050016E0850006E120013
:100A1A000001A751390806E3300EA75D03E3010E72
:080A2A00006E01D0006A120009
:100A32000A6A0350D8A40A800750D8A40A820A502E
:100A4200D8B47CEF05F0030AD8B435EF05F00AB04C
:100A520030EF05F006AE7AEF05F078EF05F002AE62
:100A620078EF05F07AEF05F00250800B0A6E029ED5
:100A72000650800B069E0A18D8B446EF05F00A50BD
:100A8200D8B478EF05F07AEF05F00750035CD8B4DC
:100A920050EF05F0D8A06CEF05F072EF05F00650AC
:100AA200025CD8B45AEF05F0D8A06CEF05F072EFF3
:100AB20005F00550015CD8B464EF05F0D8A06CEFE6
:100AC20005F072EF05F00450005CD8B47CEF05F03D
:100AD200D8B072EF05F00A52D8B47AEF05F078EF89
:100AE20005F00A52D8B478EF05F07AEF05F0D88015
:0E0AF2001200D8901200D880D8841200120092
:100B00006E0E0001A75DD8A0C3D0640E046EA7C00E
:100B100000F0B9DD120E0024056E066A000E0622F2
:100B200005C000F006C001F0000E06BEFF0E026E0A
:100B3000036E003600900136023603360036009010
:100B4000013602360336460E0024F66E410E0120B1
:100B5000F76E000E0220F86E0900F5CF00F00900D4
:100B6000F5CF01F00900F5CF02F00900F5CF03F051
:100B7000000E046E000E056E000E066E7E0E076EF1
:100B80000FDE00C0A8F001C0A9F002C0AAF003C0A7
:100B9000ABF0640E046EA7C000F075DD08C000F075
:100BA0000A0E046E70DD090E0024056E066A000E42
:100BB000062205C000F006C001F0000E06BEFF0EC2
:100BC000026E036E003600900136023603360036A0
:100BD0000090013602360336460E0024F66E410EB2
:100BE0000120F76E000E0220F86E0900F5CF00F02C
:100BF0000900F5CF01F00900F5CF02F00900F5CFAB
:100C000003F0A8C004F0A9C005F0AAC006F0ABC06C
:100C100007F0C6DD00C0A8F001C0A9F002C0AAF02C
:100C200003C0ABF00A0E046EA7C000F02CDD08C0B4
:100C300000F000C001F0000E026E036E046E01367B
:100C4000019002360336043601360190023603362F
:100C50000436460E0124F66E410E0220F76E000E99
:100C60000320F86E0900F5CF00F00900F5CF01F080
:100C70000900F5CF02F00900F5CF03F0A8C004F099
:100C8000A9C005F0AAC006F0ABC007F089DDACD062
:100C9000A7510A08D8B07AD00A0E046EA7C000F097
:100CA000F2DC090E0024056E066A000E062205C05D
:100CB00000F006C001F0000E06BEFF0E026E036ECD
:100CC00000360090013602360336003600900136B9
:100CD00002360336460E0024F66E410E0120F76EF2
:100CE000000E0220F86E0900F5CF00F00900F5CFE4
:100CF00001F00900F5CF02F00900F5CF03F0000E76
:100D0000046E000E056E000E066E7E0E076E48DD48
:100D100000C0A8F001C0A9F002C0AAF003C0ABF067
:100D20000A0E046EA7C000F0AEDC08C000F000C0E0
:100D300001F0000E026E036E046E01360190023661
:100D40000336043601360190023603360436460E69
:100D50000124F66E410E0220F76E000E0320F86E9D
:100D60000900F5CF00F00900F5CF01F00900F5CF3B
:100D700002F00900F5CF03F0A8C004F0A9C005F007
:100D8000AAC006F0ABC007F00BDD2ED0A7C000F064
:100D9000000E016E026E036E0036009001360236C0
:100DA000033600360090013602360336460E002424
:100DB000F66E410E0120F76E000E0220F86E09005B
:100DC000F5CF00F00900F5CF01F00900F5CF02F0F2
:100DD0000900F5CF03F0000E046E000E056E000E44
:0A0DE000066E7E0E076EDCDC1200CA
:100DEA000B6A0A6A096A086A0E6A033408360450EA
:100DFA00085E0550D8A0053C095E0650D8A0063CFE
:100E0A000A5E0750D8A0073C0B5EE86AD8A0010E1C
:100E1A000E5E0336070E0C6E0334083609360A36A0
:100E2A000B360E36045003A012D0085E0550D8A027
:100E3A00053C095E0650D8A0063C0A5E0750D8A0B9
:100E4A00073C0B5EE86AD8A0010E0E5E11D0082698
:100E5A000550D8B0053C09260650D8B0063C0A26EB
:100E6A000750D8B0073C0B26E86AD8B0010E0E2608
:100E7A0003360C2ED1D70234083609360A360B3619
:100E8A000E36045003A012D0085E0550D8A0053CC7
:100E9A00095E0650D8A0063C0A5E0750D8A0073C57
:100EAA000B5EE86AD8A0010E0E5E11D00826055026
:100EBA00D8B0053C09260650D8B0063C0A26075089
:100ECA00D8B0073C0B26E86AD8B0010E0E260236C7
:100EDA00070E0C6E0234083609360A360B360E3601
:100EEA00045002A012D0085E0550D8A0053C095E45
:100EFA000650D8A0063C0A5E0750D8A0073C0B5EF5
:100F0A00E86AD8A0010E0E5E11D008260550D8B0A6
:100F1A00053C09260650D8B0063C0A260750D8B028
:100F2A00073C0B26E86AD8B0010E0E2602360C2EB4
:100F3A00D1D70134083609360A360B360E36045034
:100F4A0002A012D0085E0550D8A0053C095E0650E2
:100F5A00D8A0063C0A5E0750D8A0073C0B5EE86A98
:100F6A00D8A0010E0E5E11D008260550D8B0053C57
:100F7A0009260650D8B0063C0A260750D8B0073CC6
:100F8A000B26E86AD8B0010E0E260136070E0C6E43
:100F9A000134083609360A360B360E36045001A0DB
:100FAA0012D0085E0550D8A0053C095E0650D8A0AC
:100FBA00063C0A5E0750D8A0073C0B5EE86AD8A038
:100FCA00010E0E5E11D008260550D8B0053C092640
:100FDA000650D8B0063C0A260750D8B0073C0B2664
:100FEA00E86AD8B0010E0E2601360C2ED1D700348D
:100FFA00083609360A360B360E36045001A012D0CE
:10100A00085E0550D8A0053C095E0650D8A0063CEB
:10101A000A5E0750D8A0073C0B5EE86AD8A0010E0A
:10102A000E5E11D008260550D8B0053C0926065098
:10103A00D8B0063C0A260750D8B0073C0B26E86A07
:10104A00D8B0010E0E260036070E0C6E0034083694
:10105A0009360A360B360E36045000A012D0085E46
:10106A000550D8A0053C095E0650D8A0063C0A5E89
:10107A000750D8A0073C0B5EE86AD8A0010E0E5EA6
:10108A0011D008260550D8B0053C09260650D8B01C
:10109A00063C0A260750D8B0073C0B26E86AD8B0A7
:1010AA00010E0E2600360C2ED1D700B00ED00450F9
:1010BA0008260550D8B0053C09260650D8B0063C8B
:0C10CA000A260750D8B0073C0B26120085
:1010D6000450000A08E10550000A05E1FF0E006E03
:1010E6007F0E016E58D00D6A096A086A0150001019
:1010F600D8B4000C015005180A6E0ABE0D1E0B6A04
:1011060005AE05D0041E051E042AD8B4052A01AE74
:1011160005D0001E011E002AD8B4012A0150051070
:101126000A6E0ABE10D0A4EC03F00BB020D00DAEB0
:10113600000C001E011E002AD8B4012A081E091E32
:10114600082AD8B4092A000C05AE0DD001BE07D076
:101156000150096E0050086E016A006AE8D7016AFC
:10116600006A002A000C011E001E0B2ADDD7082A81
:10117600D8B4092A0450085CD8A4D9D70550095C0C
:10118600D8A4D5D7096A086A002AD8B4012A01AEBC
:08119600CED70000FF0C12008F
:10119E000B6A0A6A096A00500402F4CF09F0F3CF11
:1011AE0008F001500502F4CF0BF0F3CF0AF0005017
:1011BE000502F3500926F4500A22E86A0B22015068
:1011CE000402F3500926F4500A22E86A0B2208C0E2
:1011DE0000F009C001F00AC002F00BC003F01200CB
:1011EE000B6A0C6A0A6A086A0350D8B47FEF09F0DA
:1011FE00028E9E0E035E03BE0AEF09F0D8B40AEF0C
:10120E0009F06FEF09F0036C080E035CD8A03CEFF9
:10121E0009F0036E083600C008F001C000F002C0ED
:10122E0001F0026A080E035CD8A03CEF09F0036ED1
:10123E00083600C008F001C000F0016A080E035C19
:10124E00D8A03CEF09F0036E083600C008F0006A23
:10125E00080E035CD8A03CEF09F0036E0836086A4E
:10126E000350D8A4D89048EF09F00350D8B448EFF3
:10127E0009F0D8900232013200320832032E40EFCC
:10128E0009F00BBC08A059EF09F0D8A059EF09F0EE
:10129E00082AD8B4002AD8B4012AD8B4022A02BE29
:1012AE0083EF09F00AAE7FEF09F0021E011E001E49
:1012BE00081E082AD8B4002AD8B4012AD8B4022AA3
:1012CE007FEF09F0026A016A006A086A7FEF09F08F
:1012DE000B800BAE89EF09F0026A0AAE89EF09F0B6
:1012EE00026E016E006E086E0A36023289EF09F048
:1012FE00000E0C6A8AEF09F0010E0C6E63EC04F01E
:10130E008AEF09F0FF0E0250036E0150026E00507C
:08131E00016E0850006E120080
:10132600800E0001A719006E800E000A005CD8B07E
:101336006DD1A7510008016E01C0A7F0800E0118FB
:10134600006E800E6E0A005CD8A0C0D0640E046EDB
:10135600A7C000F055EC03F0120E0024056E000E37
:1013660000BEFF0E066E000E062205C000F006C087
:1013760001F0000E06BEFF0E026E036E00360090F0
:101386000136023603360036009001360236033641
:10139600460E0024F66E410E0120F76E000E022066
:1013A600F86E0900F5CFA8F00900F5CFA9F00900FD
:1013B600F5CFAAF00900F5CFABF0640E046EA7C016
:1013C60000F055EC03F008C000F00A0E046E55EC70
:1013D60003F0090E0024056E000E00BEFF0E066E19
:1013E600000E062205C000F006C001F0000E06BE83
:1013F600FF0E026E036E003600900136023603368B
:1014060000360090013602360336460E0024F66E8C
:10141600410E0120F76E000E0220F86E0900F5CF8E
:1014260000F00900F5CF01F00900F5CF02F0090040
:10143600F5CF03F0A8C004F0A9C005F0AAC006F0D5
:10144600ABC007F0D0EC03F000C0A8F001C0A9F0D3
:1014560002C0AAF003C0ABF00A0E046EA7C000F0EB
:1014660055EC03F008C000F000C001F0000E00BE0D
:10147600FF0E026E036E046E0136019002360336CD
:10148600043601360190023603360436460E012430
:10149600F66E410E0220F76E000E0320F86E09006C
:1014A600F5CF00F00900F5CF01F00900F5CF02F005
:1014B6000900F5CF03F0A8C004F0A9C005F0AAC042
:1014C60006F0ABC007F0D0EC03F007D2800E0A0A94
:1014D600006E800EA719005C71E20A0E046EA7C0AA
:1014E60000F055EC03F0090E0024056E000E00BE58
:1014F600FF0E066E000E062205C000F006C001F0C3
:10150600000E06BEFF0E026E036E00360090013618
:101516000236033600360090013602360336460E92
:101526000024F66E410E0120F76E000E0220F86EC2
:101536000900F5CFA8F00900F5CFA9F00900F5CF0D
:10154600AAF00900F5CFABF00A0E046EA7C000F0B2
:1015560055EC03F008C000F000C001F0000E00BE1C
:10156600FF0E026E036E046E0136019002360336DC
:10157600043601360190023603360436460E01243F
:10158600F66E410E0220F76E000E0320F86E09007B
:10159600F5CF00F00900F5CF01F00900F5CF02F014
:1015A6000900F5CF03F0A8C004F0A9C005F0AAC051
:1015B60006F0ABC007F0D0EC03F08FD1A7C000F067
:1015C600000EA7BFFF0E016E026E036E003600907E
:1015D60001360236033600360090013602360336EF
:1015E600460E0024F66E410E0120F76E000E022014
:1015F600F86E0900F5CF00F00900F5CF01F00900FB
:10160600F5CF02F00900F5CF03F067D1800EA719D8
:10161600006E800E6E0A005CD8A0C0D0640E046E08
:10162600A7C000F055EC03F0120E0024056E000E64
:1016360000BEFF0E066E000E062205C000F006C0B4
:1016460001F0000E06BEFF0E026E036E003600901D
:10165600013602360336003600900136023603366E
:10166600120E0024F66E410E0120F76E000E0220C7
:10167600F86E0900F5CFA8F00900F5CFA9F009002A
:10168600F5CFAAF00900F5CFABF0640E046EA7C043
:1016960000F055EC03F008C000F00A0E046E55EC9D
:1016A60003F0090E0024056E000E00BEFF0E066E46
:1016B600000E062205C000F006C001F0000E06BEB0
:1016C600FF0E026E036E00360090013602360336B8
:1016D60000360090013602360336120E0024F66EEE
:1016E600410E0120F76E000E0220F86E0900F5CFBC
:1016F60000F00900F5CF01F00900F5CF02F009006E
:10170600F5CF03F0A8C004F0A9C005F0AAC006F002
:10171600ABC007F0D0EC03F000C0A8F001C0A9F000
:1017260002C0AAF003C0ABF00A0E046EA7C000F018
:1017360055EC03F008C000F000C001F0000E00BE3A
:10174600FF0E026E036E046E0136019002360336FA
:10175600043601360190023603360436120E012491
:10176600F66E410E0220F76E000E0320F86E090099
:10177600F5CF00F00900F5CF01F00900F5CF02F032
:101786000900F5CF03F0A8C004F0A9C005F0AAC06F
:1017960006F0ABC007F0D0EC03F09FD0800E0A0A2B
:1017A600006E800EA719005C71E20A0E046EA7C0D7
:1017B60000F055EC03F0090E0024056E000E00BE85
:1017C600FF0E066E000E062205C000F006C001F0F0
:1017D600000E06BEFF0E026E036E00360090013646
:1017E6000236033600360090013602360336120EF4
:1017F6000024F66E410E0120F76E000E0220F86EF0
:101806000900F5CFA8F00900F5CFA9F00900F5CF3A
:10181600AAF00900F5CFABF00A0E046EA7C000F0DF
:1018260055EC03F008C000F000C001F0000E00BE49
:10183600FF0E026E036E046E013601900236033609
:10184600043601360190023603360436120E0124A0
:10185600F66E410E0220F76E000E0320F86E0900A8
:10186600F5CF00F00900F5CF01F00900F5CF02F041
:101876000900F5CF03F0A8C004F0A9C005F0AAC07E
:1018860006F0ABC007F0D0EC03F027D0A7C000F0FD
:10189600000EA7BFFF0E016E026E036E00360090AB
:1018A600013602360336003600900136023603361C
:1018B600120E0024F66E410E0120F76E000E022075
:1018C600F86E0900F5CF00F00900F5CF01F0090028
:0C18D600F5CF02F00900F5CF03F012007E
:1018E2000450000A12E10550000A0FE10650000AF6
:1018F2000CE10750000A09E1FF0E006EFF0E016EB7
:101902007F0E026EFF0E036EA8D0086A096A0750A6
:10191200D8B41CEF0DF00350D8B421EF0DF00250F3
:1019220006180A6E028E068E0E6A02C008F001C008
:101932000CF000C00DF004500D5E0550D8A0053C1F
:101942000C5E0650D8A0063C085E086A0C6A0D6A56
:10195200D8A0B3EF0CF0D890023201320032083234
:10196200010E0E6E0750035ED8A0C0EF0CF07E0E83
:101972000E240326D8B026EF0DF0C6EF0CF07E0E33
:101982000E240326D8A02BEF0DF0180E0B6E0D3689
:101992000C3608360036013602360E360450005E2A
:1019A2000550D8A0053C015E0650D8A0063C025E58
:1019B20006340E120EA0E1EF0CF00D80ECEF0CF0ED
:1019C200045000260550D8B0053C01260650D8B078
:1019D200062802260D900B2EC8EF0CF012EF0DF028
:1019E200D8900036013602360E360450005E05509D
:1019F200D8A0053C015E0650D8A0063C025E063423
:101A02000E10010B0D26D8B00C2AD8B4082AD8A47F
:101A120012EF0DF008320C320D32032AD8B426EF41
:101A22000DF00AAE089E0850026E0C50016E0D5069
:101A3200006E2EEF0DF0010E71EC04F02EEF0DF0A2
:101A4200020E1AEC00F02EEF0DF0040E0EEC00F078
:0C1A52002EEF0DF0080E21EC00F0120049
:101A5E0003500718D8A443EF0DF002500618D8A46F
:101A6E0043EF0DF001500518D8A443EF0DF00050D0
:0E1A7E000418D8B4D8841200D89412001200B4
:101A8C000001A7BF02D0839E01D0838EA7BD02D0D8
:101A9C00839C01D0838CA7BB02D0839A01D0838A0C
:101AAC00A7B902D0839801D0838855B002D0848026
:101ABC0001D08490848452EC03F08494A7B702D0B4
:101ACC00839E01D0838EA7B502D0839C01D0838CDA
:101ADC00A7B302D0839A01D0838AA7B102D083988E
:101AEC0001D0838855B002D0848001D08490848446
:101AFC0052EC03F0849455A003D038EC03F002D0E0
:061B0C0023EC01F01200C1
:101B12000050086E0150006E0250016E0350026EBA
:101B2200036A0B6A0C6A9E0E036E0A6A020E0C6E40
:061B320032EC00F012008D
:081B3800067E28EC01F012000A
:101B40000C6A0E6A0250D8A4B9EF0DF001C002F081
:101B500000C001F0006A0E860250D8A4B9EF0DF063
:101B600001C002F0016A0E960E880250D8B4CBEF85
:101B70000DF00E50035ED8A4D8A0D1EF0DF0D89090
:101B800002BED7EF0DF0003601360236032EC0EF4D
:101B90000DF0D1EF0DF0010E0C6E1AEC00F0DBEF42
:101BA0000DF0020E0C6E21EC00F0DBEF0DF0040ED8
:081BB0000C6E2EEC00F0120097
:0C1BB80055907FC0A7F066DF558012003A
:0C1BC4000E0E0D6E0D2EFED7000012005C
:101BD00000019F6BA06B936B946B83C000F084C07B
:101BE00001F085C002F0010E8327000E84238523B7
:101BF00000C0F6FF01C0F7FF02C0F8FF0900F5CFF3
:101C000000F000C090F00052D8B4F5EF1DF09051F4
:101C1000250A0BE081C0E1FF82C0E2FF90C0E6FF31
:101C2000814B822B9F4BA02BD8D7916B926B936BE0
:101C3000946B23D09387010E8327000E8423852382
:101C400059D09381010E8327000E8423852352D01F
:101C50009383010E8327000E842385234BD0948722
:101C6000010E8327000E8423852344D09385010E23
:101C70008327000E842385233DD083C0F6FF84C0D4
:101C8000F7FF85C0F8FF0900F5CF01F001502D0ADC
:101C9000D1E083C0F6FF84C0F7FF85C0F8FF0900DC
:101CA000F5CF01F00150200ACCE083C0F6FF84C0DC
:101CB000F7FF85C0F8FF0900F5CF01F001502B0AAE
:101CC000C7E083C0F6FF84C0F7FF85C0F8FF0900B6
:101CD000F5CF01F00150230AC2E083C0F6FF84C0B3
:101CE000F7FF85C0F8FF0900F5CF01F00150300A79
:101CF000BDE001D09ED793A301D0939193A701D0CB
:101D0000939583C0F6FF84C0F7FF85C0F8FF0900F4
:101D1000F5CF00F0000E016E00C0A7F00DEC05F04D
:101D2000005236E0916B926B91C000F092C001F0CE
:101D30000A0E046E000E056ECFEC08F083C0F6FFAD
:101D400084C0F7FF85C0F8FF0900F5CF02F002500C
:101D50000024916F000E0120926F300E915F000EF3
:101D6000925B010E8327000E8423852383C0F6FF38
:101D700084C0F7FF85C0F8FF0900F5CF00F0000E22
:101D8000016E00C0A7F00DEC05F00052CDE133D09C
:101D900083C0F6FF84C0F7FF85C0F8FF0900F5CFC8
:101DA00001F001502A0A27E186C0E9FF87C0EAFF57
:101DB000EECF00F0EECF01F000C0E9FF01C0EAFF76
:101DC000EECF91F0EECF92F086C0E9FF87C0EAFF38
:101DD000020EEE24006E000EEE20016E86C0E1FFC2
:101DE00087C0E2FF00C0E6FF01C0E6FF010E8327C7
:101DF000000E8423852383C0F6FF84C0F7FF85C0CF
:101E0000F8FF0900F5CF01F001502E0A70E1010E34
:101E10008327000E8423852383C0F6FF84C0F7FF49
:101E200085C0F8FF0900F5CF01F001502A0A28E12A
:101E300086C0E9FF87C0EAFFEECF00F0EECF01F0E9
:101E400000C0E9FF01C0EAFFEECF8EF0EECF8FF0C9
:101E500086C0E9FF87C0EAFF020EEE24006E000E86
:101E6000EE20016E86C0E1FF87C0E2FF00C0E6FF02
:101E700001C0E6FF010E8327000E8423852336D0A0
:101E80008E6B8F6B83C0F6FF84C0F7FF85C0F8FFB1
:101E90000900F5CF00F0000E016E00C0A7F00DECB8
:101EA00005F0005223E08EC000F08FC001F00A0E52
:101EB000046E000E056ECFEC08F083C0F6FF84C000
:101EC000F7FF85C0F8FF0900F5CF02F002500024AB
:101ED0008E6F000E01208F6F300E8E5F000E8F5BB5
:101EE000010E8327000E84238523CCD703D08E6B6D
:101EF0008F6B948983C000F084C001F085C002F02C
:101F0000010E8327000E8423852300C0F6FF01C045
:101F1000F7FF02C0F8FF0900F5CF90F0F9D09FC09D
:101F200000F0A0C001F0F9EF1DF09389E3D794858C
:101F30002ED1938B94812BD1948329D1938D27D14A
:101F400026D1938B938F23D186C0E9FF87C0EAFF08
:101F5000EECF00F0EECF01F000C0E9FF01C0EAFFD4
:101F6000EECF9BF0EECF9CF086C0E9FF87C0EAFF82
:101F7000020EEE24006E000EEE20016E86C0E1FF20
:101F800087C0E2FF00C0E6FF01C0E6FF000E9C191B
:101F900002E1000E9B1904E14E0E9B6F000E9C6F38
:101FA0009D6B9E6B9D519B25E96E9E519C21EA6E17
:101FB000EE520BE0010E9D25006E000E9E21016E7B
:101FC00000C09DF001C09EF0EDD78E518F110AE048
:101FD0009E518F5D02E19D518E5D04E28EC09DF0A9
:101FE0008FC09EF092519E5D02E191519D5D05E290
:101FF0009D51915F9E51925B02D0916B926B93B712
:1020000016D091C000F092C001F0010E915F000E59
:10201000925B005001100BE081C0E1FF82C0E2FF43
:10202000200EE66E814B822B9F4BA02BEAD79DC0E2
:1020300002F09EC003F0010E9D5D006E000E9E59E1
:10204000016E00C09DF001C09EF00250031019E027
:102050009BC0E9FF9CC0EAFF81C0E1FF82C0E2FFB4
:10206000EECFE6FF814B822B010E9B25006E000E0A
:102070009C21016E00C09BF001C09CF09F4BA02BE7
:10208000D6D793A716D091C000F092C001F0010EF0
:10209000915F000E925B005001100BE081C0E1FFE8
:1020A00082C0E2FF200EE66E814B822B9F4BA02B5D
:1020B000EAD793D586C0E9FF87C0EAFFEECF00F0EC
:1020C000EECF01F000C0E9FF01C0EAFFEECF90F0D3
:1020D00086C0E9FF87C0EAFF020EEE24006E000E04
:1020E000EE20016E86C0E1FF87C0E2FF00C0E6FF80
:1020F00001C0E6FF900E9B6F000E9C6F010E9D6F5E
:10210000000E9E6F62D7C00E9313000E94133FD043
:102110009051000AD8B403D790516C0AD8B405D7AF
:1021200090514C0AD8B401D79051660AD8B4FFD662
:102130009051450AD8B4FDD69051650AD8B4FAD664
:102140009051670AD8B4F8D690516F0AD8B4F6D631
:102150009051640AD8B4F4D69051690AD8B4F0D634
:102160009051700AD8B4EDD69051580AD8B4E9D637
:102170009051780AD8B4E6D69051730AD8B4E4D610
:102180009051630A97E09051750ABDE0B3D7000EF5
:102190009315006E9451070B016E00500110D8B4D6
:1021A0009CEF19F094A904D0060E8E6F000E8F6F6D
:1021B00086C0E9FF87C0EAFFEECF00F0EECF01F066
:1021C00000C0E9FF01C0EAFFEECF95F0EECF96F038
:1021D000EECF97F0EECF98F086C0E9FF87C0EAFF18
:1021E000040EEE24006E000EEE20016E86C0E1FFAC
:1021F00087C0E2FF00C0E6FF01C0E6FF046A056A8F
:10220000066A076A95C000F096C001F097C002F018
:1022100098C003F019EC05F0010ED8B0000E006E66
:10222000005205E0977F030E9313000E9413996BF1
:102230009A6B95C000F096C001F097C002F098C06C
:1022400003F0046A056A066A076A09DC000ED8A46E
:10225000010E006E0052D8B48AD098C000F0016A16
:10226000026A036AFF0E0016000E01167E0E005E63
:10227000000E015A00C099F001C09AF0010E005EF4
:10228000000E015A00C099F001C09AF0030E046ECE
:10229000000E056ECFEC08F000C099F001C09AF076
:1022A0000A0E046E000E056E6BEC08F000C099F08B
:1022B00001C09AF0800E0118026E800E025C02E1ED
:1022C000000E005C05E2010E0001995F000E9A5BB2
:1022D000000199510008A76F93EC09F095C004F034
:1022E00096C005F097C006F098C007F0D0EC03F058
:1022F00000C09BF001C09CF002C09DF003C09EF0A6
:10230000000E046E000E056E000E066E7F0E076E48
:102310009BC000F09CC001F09DC002F09EC003F085
:1023200019EC05F0010ED8B0000E006E005205E069
:10233000010E995F000E9A5B1AD0000E046E000E1B
:10234000056E200E066E820E076E9BC000F09CC0CC
:1023500001F09DC002F09EC003F019EC05F0000EE4
:10236000D8B0010E006E005202E0994B9A2B800EFD
:10237000006E800E9A19005C02E19951000803E397
:10238000010E906F02D099C090F094B118D094A330
:1023900015D0800E9A19006E7F0E005C02E1FC0ED3
:1023A000995D0BE3800E9A19006E800E8F19005C08
:1023B00002E18E51995D01E201D001D0EFD38E513F
:1023C0008F1106E094A304D0010E8E5F000E8F5B88
:1023D0008F51000802E18E51080803E2080E906F49
:1023E00002D08EC090F095C000F096C001F097C06A
:1023F00002F098C003F0046A056A066A076A2FECC7
:102400000DF0000ED8A4010E006E0052D8B44BD1CE
:1024100099C0A7F093EC09F000C004F001C005F0EA
:1024200002C006F003C007F095C000F096C001F0AE
:1024300097C002F098C003F071EC0CF000C095F06A
:1024400001C096F002C097F003C098F000019051CF
:102450000008A76F93EC09F000C004F001C005F07C
:1024600002C006F003C007F095C000F096C001F06E
:1024700097C002F098C003F071EC0CF000C0A1F01E
:1024800001C0A2F002C0A3F003C0A4F0A1C095F067
:10249000A2C096F0A3C097F0A4C098F0A1C000F02D
:1024A000A2C001F0A3C002F0A4C003F0F7EC08F052
:1024B00089EC0DF000C004F001C005F002C006F088
:1024C00003C007F0A1C000F0A2C001F0A3C002F059
:1024D000A4C003F09CEC0DF0000E046E000E056E1F
:1024E000000E066E7E0E076E19EC05F0000ED8B0D9
:1024F000010E006E00521AE095C000F096C001F087
:1025000097C002F098C003F0000E046E000E056E36
:10251000000E066E7E0E076E28EC01F000C095F0EE
:1025200001C096F002C097F003C098F095C000F08B
:1025300096C001F097C002F098C003F0F7EC08F0E5
:1025400000019051010F096E0A6A000E0A2209C0AB
:1025500004F00AC005F0000E0ABEFF0E066E076EFC
:1025600004360490053606360736043604900536E0
:1025700006360736AA0E0424F66E410E0520F76EC5
:10258000000E0620F86E0900F5CF05F00900F5CF22
:1025900006F00900F5CF07F00900F5CF08F0085064
:1025A000035C08E10750025C05E10650015C02E1B2
:1025B0000550005C1EE3000195C000F096C001F0DC
:1025C00097C002F098C003F0CD0E046ECC0E056EDD
:1025D0004C0E066E7B0E076ED0EC03F000C095F03B
:1025E00001C096F002C097F003C098F0994B9A2B67
:1025F0005AD095C000F096C001F097C002F098C084
:1026000003F0F7EC08F090C004F0000E056E066EC3
:10261000076E0436049005360636073604360490F5
:10262000053606360736AA0E0424F66E410E05203E
:10263000F76E000E0620F86E0900F5CF05F00900D0
:10264000F5CF06F00900F5CF07F00900F5CF08F047
:102650000850035C08E10750025C05E10650015C8C
:1026600002E10550005C1FE2000195C000F096C039
:1026700001F097C002F098C003F0000E046E000E47
:10268000056E200E066E820E076ED0EC03F000C0C1
:1026900095F001C096F002C097F003C098F0010ECB
:1026A000995F000E9A5B000194A393D094B791D0E8
:1026B000800E000A006E800E8F19005C02E18E51C0
:1026C0000A0804E20A0E8E6F000E8F6F95C000F0AC
:1026D00096C001F097C002F098C003F0F7EC08F044
:1026E00000C09BF001C09CF002C09DF003C09EF0B2
:1026F0009B519C119D119E1142E00A0E046E000E2A
:10270000056E066E076E9BC000F09CC001F09DC078
:1027100002F09EC003F0F5EC06F008C000F009C01E
:1027200001F00AC002F00BC003F0000E046E0318A3
:1027300008E10450021805E10450011802E10050BC
:10274000000A1DE1010E8E5F000E8F5B0A0E046E03
:10275000000E056E066E076E9BC000F09CC001F077
:102760009DC002F09EC003F0F5EC06F000C09BF0A7
:1027700001C09CF002C09DF003C09EF0B9D7800E4E
:102780008F19006E800E005C02E190518E5D21E297
:102790008E51905DA76F93EC09F000C004F001C06A
:1027A00005F002C006F003C007F095C000F096C027
:1027B00001F097C002F098C003F071EC0CF000C07B
:1027C00095F001C096F002C097F003C098F08EC05B
:1027D00090F0050E00018E25006E000E8F21016E17
:1027E0000050915F0150925B8E518F1103E194B7BD
:1027F00001D004D0010E915F000E925B030E931581
:10280000006E94C001F0000E01160050011004E0AB
:10281000010E915F000E925B93A539D093A312D065
:1028200093A103D02D0E7F6E02D02B0E7F6E81C040
:10283000E1FF82C0E2FF7FC0E6FF814B822B9F4B0E
:10284000A02B0CD093A10AD081C0E1FF82C0E2FF8F
:10285000200EE66E814B822B9F4BA02B800E006ECC
:10286000800E9219005C02E1915100080FE281C0D4
:10287000E1FF82C0E2FF300EE66E814B822B9F4B60
:10288000A02B010E915F000E925BE8D73AD093B770
:1028900018D0800E006E800E9219005C02E19151FA
:1028A00000080FE281C0E1FF82C0E2FF200EE66E69
:1028B000814B822B9F4BA02B010E915F000E925BF0
:1028C000E8D793A312D093A103D02D0E806F02D02E
:1028D0002B0E806F81C0E1FF82C0E2FF80C0E6FF67
:1028E000814B822B9F4BA02B0CD093A10AD081C08F
:1028F000E1FF82C0E2FF200EE66E814B822B9F4BF0
:10290000A02B95C000F096C001F097C002F098C0CF
:1029100003F0F7EC08F000C09BF001C09CF002C08F
:102920009DF003C09EF090C000F0000E016E026E9C
:10293000036E0036009001360236033600360090F2
:10294000013602360336AA0E0024F66E410E01202F
:10295000F76E000E0220F86E0900F5CF04F00900B2
:10296000F5CF05F00900F5CF06F00900F5CF07F027
:102970009BC000F09CC001F09DC002F09EC003F01F
:10298000F5EC06F0300E002681C0E1FF82C0E2FFC8
:1029900000C0E6FF814B822B9F4BA02B8E518F11E5
:1029A00003E194B701D06FD081C0E1FF82C0E2FFA4
:1029B0002E0EE66E814B822B9F4BA02B90518E5F8B
:1029C000000E8F5B90534DE0900790C000F0000E1A
:1029D000016E026E036E0036009001360236033639
:1029E00000360090013602360336AA0E0024F66E39
:1029F000410E0120F76E000E0220F86E0900F5CF9F
:102A000004F00900F5CF05F00900F5CF06F0090044
:102A1000F5CF07F09BC000F09CC001F09DC002F014
:102A20009EC003F0F5EC06F00A0E046E000E056E73
:102A3000066E076EF5EC06F008C000F009C001F064
:102A40000AC002F00BC003F0300E002681C0E1FF87
:102A500082C0E2FF00C0E6FF814B822B9F4BA02B80
:102A6000B1D78E518F110FE081C0E1FF82C0E2FF2C
:102A7000300EE66E814B822B9F4BA02B010E8E5F9A
:102A8000000E8F5BEED793AB0BD081C0E1FF82C00D
:102A9000E2FF450EE66E814B822B9F4BA02B0AD0A6
:102AA00081C0E1FF82C0E2FF650EE66E814B822BA2
:102AB0009F4BA02B800E9A19006E800E005C02E1E5
:102AC000000E995D11E299510008996F9A51000E1C
:102AD0009A5781C0E1FF82C0E2FF2D0EE66E814B66
:102AE000822B9F4BA02B0AD081C0E1FF82C0E2FF66
:102AF0002B0EE66E814B822B9F4BA02B0A0E046E91
:102B0000000E056E99C000F09AC001F06BEC08F061
:102B1000300E002681C0E1FF82C0E2FF00C0E6FF68
:102B20000001814B822B9F4BA02B0A0E046E000EDE
:102B3000056E99C000F09AC001F06BEC08F008C077
:102B400000F009C001F0300E002681C0E1FF82C014
:102B5000E2FF00C0E6FF0001814B822B9F4BA02BC0
:102B600093A71AD0800E006E800E9219005C02E1CD
:102B70009151000811E281C0E1FF82C0E2FF200E06
:102B8000E66E814B822B9F4BA02B010E915F000EB6
:102B9000925B91519211EFE1EDEF0DF094A3F3D020
:102BA000800E9A19006E800E005C02E1000E995DA5
:102BB0000AE2010E995D006E000E9A59016E0050F6
:102BC0008E5F01508F5B95C000F096C001F097C0FA
:102BD00002F098C003F0F7EC08F000C09BF001C0D1
:102BE0009CF002C09DF003C09EF0010E906F9051CA
:102BF0000A0A34E090C000F0000E016E026E036E0F
:102C00000036009001360236033600360090013659
:102C100002360336AA0E0024F66E410E0120F76E2E
:102C2000000E0220F86E0900F5CF01F00900F5CF83
:102C300002F00900F5CF03F00900F5CF04F00450CD
:102C40009E5D08E103509D5D05E102509C5D02E13F
:102C500001509B5D01E202D0902BC9D790518E5D4F
:102C6000A56F000E8F59A66FA5C08EF0A6C08FF07D
:102C70009BC000F09CC001F09DC002F09EC003F01C
:102C800089EC0DF000C004F001C005F002C006F0B0
:102C900003C007F095C000F096C001F097C002F0A5
:102CA00098C003F09CEC0DF000C0A1F001C0A2F0B0
:102CB00002C0A3F003C0A4F0A5C0A7F093EC09F0F4
:102CC000A1C004F0A2C005F0A3C006F0A4C007F0A4
:102CD000D0EC03F0000E046E000E056E000E066EC2
:102CE0007E0E076E28EC01F0F7EC08F000C09BF0B8
:102CF00001C09CF002C09DF003C09EF08E518F1168
:102D000042E00A0E046E000E056E066E076E9BC052
:102D100000F09CC001F09DC002F09EC003F0F5ECF5
:102D200006F008C000F009C001F00AC002F00BC0B4
:102D300003F0000E046E031808E10450021805E1C8
:102D40000450011802E10050000A1DE10A0E046E51
:102D5000000E056E066E076E9BC000F09CC001F071
:102D60009DC002F09EC003F0F5EC06F000C09BF0A1
:102D700001C09CF002C09DF003C09EF0010E8E5F6A
:102D8000000E8F5BBBD7800E006E800E8F19005C2B
:102D900002E18E510C0816E38EC0A7F080EC05F01E
:102DA00095C004F096C005F097C006F098C007F0F3
:102DB00028EC01F000C095F001C096F002C097F039
:102DC00003C098F095C000F096C001F097C002F0E3
:102DD00098C003F0046A056A066A076A2FEC0DF0D2
:102DE000000ED8A4010E006E0052D8B477D095C062
:102DF00000F096C001F097C002F098C003F0F7EC25
:102E000008F0000E046E031808E10450021805E1F2
:102E10000450011802E10050000A60E1800E006ECB
:102E2000800E9A19005C02E19951010857E299C09D
:102E3000A7F093EC09F000C004F001C005F002C057
:102E400006F003C007F095C000F096C001F097C0EF
:102E500002F098C003F071EC0CF05F0E046E700E7F
:102E6000056E090E066E810E076E19EC05F0010E57
:102E7000D8B0000E006E005206E0090E0001995F06
:102E8000000E9A5B05D00001080E995F000E9A5B58
:102E900099C0A7F093EC09F000C004F001C005F060
:102EA00002C006F003C007F095C000F096C001F024
:102EB00097C002F098C003F071EC0CF0F7EC08F04A
:102EC00000C09BF001C09CF002C09DF003C09EF0CA
:102ED0000001956B966B976B986B38D095C000F09E
:102EE00096C001F097C002F098C003F0F7EC08F02C
:102EF00000C09BF001C09CF002C09DF003C09EF09A
:102F00009BC000F09CC001F09DC002F09EC003F089
:102F100089EC0DF000C004F001C005F002C006F01D
:102F200003C007F095C000F096C001F097C002F012
:102F300098C003F09CEC0DF000C095F001C096F035
:102F400002C097F003C098F0996B9A6B010E906FD6
:102F500090510A0A34E090C000F0000E016E026E3B
:102F6000036E0036009001360236033600360090BC
:102F7000013602360336AA0E0024F66E410E0120F9
:102F8000F76E000E0220F86E0900F5CF01F009007F
:102F9000F5CF02F00900F5CF03F00900F5CF04F0FA
:102FA00004509E5D08E103509D5D05E102509C5D6B
:102FB00002E101509B5D01E202D0902BC9D79051F4
:102FC0008E25006E000E8F21016E995100269A51B8
:102FD00001220050915F0150925B94B704D08E5152
:102FE0008F1101E104D0010E915F000E925B030E80
:102FF0009315006E94C001F0000E011600500110F0
:1030000004E0010E915F000E925B93A539D093A36B
:1030100012D093A103D02D0E886F02D02B0E886F93
:1030200081C0E1FF82C0E2FF88C0E6FF814B822BB6
:103030009F4BA02B0CD093A10AD081C0E1FF82C08E
:10304000E2FF200EE66E814B822B9F4BA02B800E61
:10305000006E800E9219005C02E1915100080FE2AF
:1030600081C0E1FF82C0E2FF300EE66E814B822B11
:103070009F4BA02B010E915F000E925BE8D73AD0D8
:1030800093B718D0800E006E800E9219005C02E19A
:10309000915100080FE281C0E1FF82C0E2FF200EE3
:1030A000E66E814B822B9F4BA02B010E915F000E91
:1030B000925BE8D793A312D093A103D02D0E896F12
:1030C00002D02B0E896F81C0E1FF82C0E2FF89C070
:1030D000E6FF814B822B9F4BA02B0CD093A10AD0F3
:1030E00081C0E1FF82C0E2FF200EE66E814B822BA1
:1030F0009F4BA02B90C000F0900700524CE090C076
:1031000000F0000E016E026E036E00360090013674
:103110000236033600360090013602360336AA0E18
:103120000024F66E410E0120F76E000E0220F86EAC
:103130000900F5CF04F00900F5CF05F00900F5CF3F
:1031400006F00900F5CF07F09BC000F09CC001F02D
:103150009DC002F09EC003F0F5EC06F00A0E046E6E
:10316000000E056E066E076EF5EC06F008C000F066
:1031700009C001F00AC002F00BC003F0300E0026B7
:1031800081C0E1FF82C0E2FF00C0E6FF814B822BDD
:103190009F4BA02BAFD7800E006E800E9A19005C5B
:1031A00002E1995100080FE281C0E1FF82C0E2FF15
:1031B000300EE66E814B822B9F4BA02B010E995F48
:1031C000000E9A5BE8D7800E000A006E800E8F1901
:1031D000005C02E18E51080803E2080E906F02D0F5
:1031E0008EC090F090518E5F000E8F5B905303E184
:1031F00094B701D00AD081C0E1FF82C0E2FF2E0E59
:10320000E66E814B822B9F4BA02B90C0A7F093ECD6
:1032100009F095C004F096C005F097C006F098C07C
:1032200007F0D0EC03F075EC04F000C09BF001C097
:103230009CF002C09DF003C09EF090534DE09007BB
:1032400090C000F0000E016E026E036E003600901A
:103250000136023603360036009001360236033658
:10326000AA0E0024F66E410E0120F76E000E022019
:10327000F86E0900F5CF04F00900F5CF05F009005C
:10328000F5CF06F00900F5CF07F09BC000F09CC019
:1032900001F09DC002F09EC003F0F5EC06F00A0EAE
:1032A000046E000E056E066E076EF5EC06F008C0A3
:1032B00000F009C001F00AC002F00BC003F0300EAC
:1032C000002681C0E1FF82C0E2FF00C0E6FF814B23
:1032D000822B9F4BA02BB1D78E518F110FE081C055
:1032E000E1FF82C0E2FF300EE66E814B822B9F4BE6
:1032F000A02B010E8E5F000E8F5BEED793A71AD026
:10330000800E006E800E9219005C02E1915100085F
:1033100011E281C0E1FF82C0E2FF200EE66E814B28
:10332000822B9F4BA02B010E915F000E925B91515F
:103330009211EFE1EDEF0DF0C00E9315016E94C008
:1033400002F0000E0216000E021802E1000E011833
:10335000D8A480D093A927D086C0E9FF87C0EAFF10
:10336000EECF00F0EECF01F000C0E9FF01C0EAFFB0
:10337000EECF9BF0EECF9CF0EECF9DF0EECF9EF027
:1033800086C0E9FF87C0EAFF040EEE24006E000E3F
:10339000EE20016E86C0E1FF87C0E2FF00C0E6FFBD
:1033A00001C0E6FF2FD086C0E9FF87C0EAFFEECF5D
:1033B00000F0EECF01F000C0E9FF01C0EAFFEECF60
:1033C00000F0EECF01F0000E01BEFF0E026E036EA4
:1033D00000C09BF001C09CF002C09DF003C09EF0B5
:1033E00086C0E9FF87C0EAFF020EEE24006E000EE1
:1033F000EE20016E86C0E1FF87C0E2FF00C0E6FF5D
:1034000001C0E6FF800E9E19006E800E005C08E190
:10341000000E9D5D05E1000E9C5D02E1000E9B5DCE
:1034200018E2030E9313000E9413006A016A026AF5
:10343000036A9B51005E9C51015A9D51025A9E5154
:10344000035A00C09BF001C09CF002C09DF003C075
:103450009EF04ED093A927D086C0E9FF87C0EAFF2F
:10346000EECF00F0EECF01F000C0E9FF01C0EAFFAF
:10347000EECF9BF0EECF9CF0EECF9DF0EECF9EF026
:1034800086C0E9FF87C0EAFF040EEE24006E000E3E
:10349000EE20016E86C0E1FF87C0E2FF00C0E6FFBC
:1034A00001C0E6FF25D086C0E9FF87C0EAFFEECF66
:1034B00000F0EECF01F000C0E9FF01C0EAFFEECF5F
:1034C0009BF0EECF9CF0000E9D6F9E6F86C0E9FFD3
:1034D00087C0EAFF020EEE24006E000EEE20016EA1
:1034E00086C0E1FF87C0E2FF00C0E6FF01C0E6FF43
:1034F000000E8F1902E1000E8E190FE1000E006E12
:103500009E1908E100509D1905E100509C1902E147
:103510009B51000A02E18E4B8F2BC00E9315006E5B
:1035200000C005F0AED0010E906F90510A0A34E051
:1035300090C000F0000E016E026E036E0036009027
:103540000136023603360036009001360236033665
:10355000AA0E0024F66E410E0120F76E000E022026
:10356000F86E0900F5CF01F00900F5CF02F009006F
:10357000F5CF03F00900F5CF04F004509E5D08E19B
:1035800003509D5D05E102509C5D02E101509B5D91
:1035900001E202D0902BC9D782D0010E906F9051DA
:1035A000080A34E090C000F0000E016E026E036E57
:1035B00000360090013602360336003600900136A0
:1035C00002360336D20E0024F66E410E0120F76E4D
:1035D000000E0220F86E0900F5CF01F00900F5CFCA
:1035E00002F00900F5CF03F00900F5CF04F0045014
:1035F0009E5D08E103509D5D05E102509C5D02E186
:1036000001509B5D01E202D0902BC9D748D0010E3A
:10361000906F90510C0A34E090C000F0000E016EE3
:10362000026E036E00360090013602360336003615
:1036300000900136023603367A0E0024F66E410EF3
:103640000120F76E000E0220F86E0900F5CF01F0A0
:103650000900F5CF02F00900F5CF03F00900F5CF1E
:1036600004F004509E5D08E103509D5D05E10250A9
:103670009C5D02E101509B5D01E202D0902BC9D715
:103680000ED00550000AD8B44ED70550C00AD8B4A1
:103690004AD70550800A81E00550400AB8E0800E04
:1036A000006E800E8F19005C02E18E51905D03E286
:1036B0008EC090F00DD0800E8F19006E800E005CD1
:1036C00002E190518E5D04E290C08EF0000E8F6F8B
:1036D000915192110EE0030E9315006E94C001F00B
:1036E000000E01160050011004E0010E915F000E63
:1036F000925B800E8F19006E800E9219005C02E1C1
:1037000091518E5D05E28E51915F8F51925B02D097
:10371000916B926BC40E9315016E9451080B026E5F
:103720000250080A02E1400E011808E1915192117D
:1037300004E0010E915F000E925B1CD0C00E931549
:10374000016E9451080B026E0250080A02E1800ECD
:10375000011810E1800E006E800E9219005C02E1EB
:103760009151020805E2020E915F000E925B02D0B9
:10377000916B926B93A55DD093A312D093A103D0CC
:103780002D0E8A6F02D02B0E8A6F81C0E1FF82C09E
:10379000E2FF8AC0E6FF814B822B9F4BA02B34D0E7
:1037A00093A10BD081C0E1FF82C0E2FF200EE66E44
:1037B000814B822B9F4BA02B27D0C00E9315016EFF
:1037C0009451080B026E0250080A02E1800E0118A3
:1037D0001BE181C0E1FF82C0E2FF300EE66E814B4B
:1037E000822B9F4BA02B93AB03D0580E8B6F02D034
:1037F000780E8B6F81C0E1FF82C0E2FF8BC0E6FFD5
:10380000814B822B9F4BA02B9151921111E081C0D3
:10381000E1FF82C0E2FF300EE66E814B822B9F4BB0
:10382000A02B010E915F000E925B91519211EFE17E
:1038300074D09151921113E093B711D081C0E1FF80
:1038400082C0E2FF200EE66E814B822B9F4BA02BA5
:10385000010E915F000E925B91519211EFE193A3E3
:1038600012D093A103D02D0E8C6F02D02B0E8C6F33
:1038700081C0E1FF82C0E2FF8CC0E6FF814B822B5A
:103880009F4BA02B0CD093A10AD081C0E1FF82C036
:10389000E2FF200EE66E814B822B9F4BA02BC00EC9
:1038A0009315016E9451080B026E0250080A02E152
:1038B000400E01180BE181C0E1FF82C0E2FF300E33
:1038C000E66E814B822B9F4BA02B27D0C00E931509
:1038D000016E9451080B026E0250080A02E1800E3C
:1038E00001181BE181C0E1FF82C0E2FF300EE66EED
:1038F000814B822B9F4BA02B93AB03D0580E8D6F27
:1039000002D0780E8D6F81C0E1FF82C0E2FF8DC0D2
:10391000E6FF814B822B9F4BA02B800E006E800E0A
:103920008F19005C02E18E51905D0BE281C0E1FFD6
:1039300082C0E2FF300EE66E814B822B9F4BA02BA4
:10394000ECD78EC000F08FC001F0010E8E5F000E2C
:103950008F5B00500110D8B42AD1C00E9315006EB1
:1039600000C0A1F00AD18EC000F08FC001F0000E9F
:103970008FBFFF0E026E036E0036009001360236D6
:10398000033600360090013602360336AA0E0024B4
:10399000F66E410E0120F76E000E0220F86E09004F
:1039A000F5CF04F00900F5CF05F00900F5CF06F0DA
:1039B0000900F5CF07F09BC000F09CC001F09DC04E
:1039C00002F09EC003F0F5EC06F00A0E046E000E45
:1039D000056E066E076EF5EC06F008C000F009C033
:1039E00001F00AC002F00BC003F0300E0024906F0B
:1039F000D3D093AB45D08EC000F08FC001F0000E45
:103A00008FBFFF0E026E036E003600900136023645
:103A1000033600360090013602360336D20E0024FB
:103A2000F66E410E0120F76E000E0220F86E0900BE
:103A3000F5CF04F00900F5CF05F00900F5CF06F049
:103A40000900F5CF07F09BC000F09CC001F09DC0BD
:103A500002F09EC003F0F5EC06F00F0E0016000E0B
:103A6000011602160316F20E0024F66E410E012016
:103A7000F76E000E0220F86E0900F5CF90F044D0EA
:103A80008EC000F08FC001F0000E8FBFFF0E026EDF
:103A9000036E003600900136023603360036009081
:103AA000013602360336D20E0024F66E410E012096
:103AB000F76E000E0220F86E0900F5CF04F0090041
:103AC000F5CF05F00900F5CF06F00900F5CF07F0B6
:103AD0009BC000F09CC001F09DC002F09EC003F0AE
:103AE000F5EC06F00F0E0016000E01160216031676
:103AF000030E0024F66E420E0120F76E000E022027
:103B0000F86E0900F5CF90F047D08EC000F08FC05E
:103B100001F0000E8FBFFF0E026E036E00360090A4
:103B2000013602360336003600900136023603367F
:103B30007A0E0024F66E410E0120F76E000E022070
:103B4000F86E0900F5CF04F00900F5CF05F0090083
:103B5000F5CF06F00900F5CF07F09BC000F09CC040
:103B600001F09DC002F09EC003F0F5EC06F0070ED8
:103B70000014906F300E90270FD0A151000AD8B4D6
:103B8000F2D6A151C00AD8B4EED6A151800AD8B459
:103B900030D7A151400AB9E081C0E1FF82C0E2FF05
:103BA00090C0E6FF814B822B9F4BA02BCAD693A7D8
:103BB0001AD0800E006E800E9219005C02E19151C5
:103BC000000811E281C0E1FF82C0E2FF200EE66E34
:103BD000814B822B9F4BA02B010E915F000E925BBD
:103BE00091519211EFE1EDEF0DF09FC000F0A0C0F8
:043BF00001F01200CE
:103BF400770E7D6E000E7E6E72C081F073C082F00F
:103C040074C083F075C084F076C085F07D0E000129
:103C1400866F000E876FE8EC0DF000C07BF001C0EA
:103C24007CF000507224E16E01507320E26EE66A6B
:0A3C34007BC000F07CC001F012001C
:103C3E000E0EC16E966A956A010E936E946A849208
:043C4E00836A120073
:103C5200969496909598959A959C959E8494849026
:103C6200839E839C839A839838EC03F038EC03F0AC
:103C720038EC03F0838A8388848452EC03F08494C2
:103C820038EC03F0848452EC03F0849438EC03F0B3
:103C9200848452EC03F0849438EC03F08398848497
:103CA20052EC03F0849438EC03F0848452EC03F079
:103CB2008494839A838E848452EC03F0849438EC47
:103CC20003F0839E8388848452EC03F08494839867
:103CD200848452EC03F0849438EC03F0848452EC34
:103CE20003F084948388848452EC03F0849438EC47
:103CF20003F08398848452EC03F08494838E838C43
:103D0200838A8388848452EC03F0849438EC03F031
:043D120055801200C6
:103D16000900F5CFE6FF0006FBE10106F9E1120016
:103D2600FF0E566EFF0E576EFF0E586EFF0E596E43
:103D3600C26A381C006E0050C116070EC012C08E33
:043D4600C280120025
:103D4A000050086E0150006E016A026A036A0B6A2B
:103D5A000C6A960E036E0A6A00C001F008C000F0F1
:0A3D6A00086A026AA0EC0DF01200D6
:103D74000FD0800E726E19D0C00E726E16D0940ED3
:103D8400726E13D0D40E726E10D0800E726E0DD07F
:103D94007250010AEEE07250020AEEE07250030A19
:103DA400EEE07250040AEEE0F0D77304006E725035
:103DB400002600C072F000C0A7F046EC0DF055904C
:103DC400766A76507424E96E000E7520EA6EEE521F
:103DD4000CE076507424E96E000E7520EA6EEECF86
:0E3DE4007FF0DCEC0DF0762AECD75580120053
:103DF2000FD0800E726E19D0C00E726E16D0940E55
:103E0200726E13D0D40E726E10D0800E726E0DD000
:103E12007250010AEEE07250020AEEE07250030A9A
:103E2200EEE07250040AEEE0F0D77304006E7250B6
:103E3200002600C072F0558000C0A7F046EC0DF0DD
:0E3E4200559074C0A7F046EC0DF055801200AC
:103E5000C26A381C006E0050C116070EC012C08E18
:103E600072C000F000360090003600900050C21280
:103E7000C280E2EC0DF0C282C2A201D0FDD7C4CF55
:103E800001F0006AC3500012000E0112C29012002D
:103E90000DEC21F048DFD3DEDCDE0C0E0001A76F55
:103EA00046EC0DF0726AD4DF50DF00C05EF001C056
:103EB0005FF002C060F003C061F0EC0E046E510EC2
:103EC000056E080E066E820E076E71EC0CF000C0D7
:103ED0005AF001C05BF002C05CF003C05DF0620EFE
:103EE000726E000E736E140E746E420E756E000EBE
:103EF000766E00C077F001C078F002C079F003C0A0
:103F00007AF078DE81A030D0010E726E010E736EF1
:103F1000400E746E000E756E2DDF020E726E010E75
:103F2000736E390E746E000E756E24DF020E726EA3
:103F3000070E736E620E746E000E756E1BDF020E3E
:103F4000726E0C0E736E4C0E746E53DF020E0B6E9F
:103F5000040E0C6EBA0E0D6E0D2EFED70C2EFCD775
:103F60000B2EFAD7000014D081B012D0010E726E61
:103F7000010E736E250E746E000E756EFBDE020E62
:103F8000726E010E736E150E746E000E756EF2DE9B
:103F90005AC004F05BC005F05CC006F05DC007F0DD
:103FA000000E006E000E016E700E026E830E036E28
:103FB00019EC05F0000ED8B0010E006E005204E0BE
:103FC00082808292828483D05AC004F05BC005F064
:103FD0005CC006F05DC007F0000E006E000E016EC2
:103FE000700E026E830E036E19EC05F0010ED8B050
:103FF000000E006E00521CE05AC004F05BC005F0D9
:104000005CC006F05DC007F0000E006E000E016E91
:10401000700E026E840E036E19EC05F0000ED8B01F
:10402000010E006E005204E08280829282844FD0A2
:104030005AC004F05BC005F05CC006F05DC007F03C
:10404000000E006E000E016E700E026E840E036E86
:1040500019EC05F0010ED8B0000E006E00521CE005
:104060005AC004F05BC005F05CC006F05DC007F00C
:10407000000E006E000E016E340E026E850E036E91
:1040800019EC05F0000ED8B0010E006E005204E0ED
:104090008280828282841BD05AC004F05BC005F00B
:1040A0005CC006F05DC007F0000E006E000E016EF1
:1040B000340E026E850E036E19EC05F0010ED8B0B9
:1040C000000E006E005203E0829082828294EAD653
:0240D000FFD718
:10421A0010EE15F0400E006E010E016ED20EF66E13
:0E422A00400EF76E000EF86E8BEC1EF01200C8
:1040D200204155544F4D4143414F20494E442E00FB
:1040E2002020202045544543202D205056202020BA
:0340F2002020008B
:0140F500309A
:0740F6004C4556454C3A0011
:0E40FD004C4556454C20434F4E54524F4C00FC
:07410B00286E756C6C2900A1
:104112000000007F000020820000488500007A88AD
:1041220000401C8C0050438F002474928096189695
:1041320020BC3E99286B6E9CF90215A0EC782DC12B
:04414200CAF249E292
:104146000000007FCDCC4C7B0AD723786F12037515
:1041560017B75171ACC5276EBD37066B95BF56674D
:1041660077CC2B645F700961FFE65B5D08E53C3C3C
:044176006042221B66
:10417A0001000000080000004000000000020000EA
:10418A000010000000800000000004000000200071
:10419A0000000001000000080000004000000000CC
:1041AA00010000000A00000064000000E8030000AB
:1041BA0010270000A086010040420F008096980058
:0841CA0000E1F50500CA9A3B73
:1041D20001000000100000000001000000100000BB
:1041E20000000100000010000000000100000010AB
:1041F200303132333435363738394142434445461B
:0142020000BB
:104203003031323334353637383961626364656649
:0142130000AA
:05421400252E316600BB
:020000040030CA
:0D000100021F1EFF8381FF0FC00FE00F40A4
:00000001FF
