:1000000020EF05F00000000000EF00F0000000000D
:0A0010000000000000000000F3D71C
:06001C00000000001200CC
:100022000F0E0C6E470E0D6E0D2EFED70C2EFCD74A
:06003200000000001200B6
:0A003800210E0D6E0D2EFED71200F2
:080042000AAE029E000E12003E
:10004A000B840BAE30EF00F0010E036E026A016AF8
:0A005A00006A0A360232FF0E12009F
:0E006400026A016A006A086A036A000E12004E
:100072006CBE02D0839E01D0838E6CBC02D0839C66
:1000820001D0838C6CBA02D0839A01D0838A6CB877
:1000920002D0839801D0838859B002D0848001D0E5
:1000A20084908484BADF84946CB602D0839E01D09B
:1000B200838E6CB402D0839C01D0838C6CB202D04C
:1000C200839A01D0838A6CB002D0839801D083884E
:1000D20059B002D0848001D0849084849EDF8494BD
:0C00E20059A002D09DDF01D0A6DF120063
:1000EE000B820BAE81EF00F00368026801680068B6
:0800FE000A360232FF0E120067
:100106000C6A0E6A0250D8A49CEF00F001C002F0FF
:1001160000C001F0006A0E860250D8A49CEF00F0E1
:1001260001C002F0016A0E960E880250D8B4AEEFF6
:1001360000F00E50035ED8A4D8A0B3EF00F0D8901C
:1001460002BEB8EF00F0003601360236032EA3EFEA
:1001560000F0B3EF00F0010E0C6E81DFBBEF00F094
:10016600020E0C6E6FDFBBEF00F0040E0C6E66DF46
:02017600120075
:1001780068C004F069C005F004C002F005C003F0CF
:10018800044A052A6AC000F06BC001F06A4A6B2A6B
:1001980000C0E9FF01C0EAFF02C0E1FF03C0E2FFBF
:1001A800EECFE6FF02C0E9FF03C0EAFFEE5201E02E
:0C01B800E3D768C000F069C001F012003D
:1001C4000D6A086A0050D8B4000C04180A6E0ABEFE
:1001D4000D1E0B6A04AE02D0041E042A00AE02D027
:1001E400001E002A005004100A6E0ABE1FD00450DC
:1001F400085E003600340836045008260036060E21
:100204000C6E00340836045000B0085E00A00826C6
:1002140000360C2EF6D700A008260BB015D00DAE74
:10022400000C001E002A081E082A000C04AE09D087
:1002340000BE04D00050086E006AF1D7006A002A9C
:10024400000C001E0B2AD3D7082A0450085CD8A43B
:0E025400E6D7086A002A00AEE2D7FF0C1200BF
:10026200086A096A000E07620364B6EF01F00250E1
:1002720006180A6E075003267E0ED8A047EF01F03B
:10028200035ED8B0BAEF01F04BEF01F0035ED8A0E5
:10029200BEEF01F0028E068E02C00EF001C00BF01E
:1002A20000C00DF000500402F4CF0CF00150050222
:1002B200F4CF00F0F3CF08F00402F3500C26F45010
:1002C2000822000E00220D500502F3500C26F450B5
:1002D2000822000E002202500402F3500826F450B5
:1002E200002202500502016A000E0122F35000268C
:1002F200F45001220D500602F3500826F450002259
:10030200026A000E012202220B500602F35000265E
:10031200F4500122000E02220E500602F350012672
:10032200F450022202BE9EEF01F00836003601367A
:1003320002360306D8B4BEEF01F0B1EF01F0D88067
:10034200800E08640030000E002201220222D8A092
:10035200B1EF01F0023201320032034ABAEF01F08A
:100362000AAE029E000EC0EF01F0010E7ADEC0EF6F
:1003720001F0020EBBDEC0EF01F0040E65DE1200DA
:100382000A6A0350D8A40A800750D8A40A820A50E5
:10039200D8B424EF02F0030AD8B4DDEF01F00AB0BA
:1003A200D8EF01F006AE22EF02F020EF02F002AE2B
:1003B20020EF02F022EF02F00250800B0A6E029E42
:1003C2000650800B069E0A18D8B4EEEF01F00A50D0
:1003D200D8B420EF02F022EF02F00750035CD8B449
:1003E200F8EF01F0D8A014EF02F01AEF02F0065075
:1003F200025CD8B402EF02F0D8A014EF02F01AEFB8
:1004020002F00550015CD8B40CEF02F0D8A014EF52
:1004120002F01AEF02F00450005CD8B424EF02F0AC
:10042200D8B01AEF02F00A52D8B422EF02F020EF4D
:1004320002F00A52D8B420EF02F022EF02F0D88084
:0E0442001200D8901200D880D8841200120048
:0C045000599068C06CF00DDE598012005D
:0C045C000E0E0D6E0D2EFED700001200DB
:10046800FF0E3D6EFF0E3E6EFF0E3F6EFF0E406E9E
:10047800C26A151C006E0050C116070EC012C08E4D
:04048800C28012001C
:10048C00969496909598959A959C959E8494849024
:10049C00839E839C839A8398BEDDBDDDBCDD838AFD
:1004AC0083888484B5DD8494B6DD8484B1DD849442
:1004BC00B2DD8484ADDD8494AEDD83988484A8DDC4
:1004CC008494A9DD8484A4DD8494839A838E8484AB
:1004DC009FDD8494A0DD839E8388848499DD84943D
:1004EC008398848495DD849496DD848491DD849452
:1004FC00838884848DDD84948EDD8398848488DD68
:10050C008494838E838C838A8388848481DD849411
:06051C0082DD598012008F
:100522000E0EC16E966A956A946A8492836AFF0E71
:04053200826E1200C3
:100536000900F5CFE6FF0006FBE10106F9E112002E
:100546000050086E0150006E016A026A036A0B6A67
:100556000C6A960E036E0A6A00C001F008C000F02D
:08056600086A026ACDDD1200F3
:10056E00666A676A5AC062F05BC063F05CC064F092
:10057E005DC065F06550FF0A08E16450FF0A05E1B1
:10058E006350FF0A02E16250FF0A0CE15EC068F0A0
:10059E005FC069F0210E6A6E000E6B6EE6DD030E13
:1005AE00006EE9D1010E606E64AE0ED0800E64183E
:1005BE00006E00C064F0602A5EC0E1FF5FC0E2FF23
:1005CE002D0EE66E5E4A5F2A000E006E651808E17B
:1005DE000050641805E10050631802E16250000AF1
:1005EE000BE15EC068F05FC069F01F0E6A6E000E10
:1005FE006B6EBBDD006ABFD16550FF0A08E1645027
:10060E00000A05E16350000A02E16250000A0CE1A3
:10061E005EC068F05FC069F0390E6A6E000E6B6ED8
:10062E00A4DD60C000F0A7D1000E046E000E056EB2
:10063E00000E066E7F0E076E62C000F063C001F002
:10064E0064C002F065C003F095DE010ED8B0000E56
:10065E00006E00521BE062C000F063C001F064C087
:10066E0002F065C003F0000E046E000E056E200E43
:10067E00066E820E076EEEDD00C062F001C063F002
:10068E0002C064F003C065F06706CED7000E046E9C
:10069E00000E056E200E066E820E076E62C000F012
:1006AE0063C001F064C002F065C003F063DE000EAB
:1006BE00D8B0010E006E00521BE062C000F063C0A5
:1006CE0001F064C002F065C003F0CD0E046ECC0ED6
:1006DE00056E4C0E066E7B0E076EBCDD00C062F022
:1006EE0001C063F002C064F003C065F0672ACED784
:1006FE00FF0E6214086EFF0E6314096E7F0E6414F3
:10070E000A6E000E65140B6E08C004F009C005F0E9
:10071E000AC006F00BC007F0043604900536063604
:10072E000736000E6214006E000E6314016E000E8A
:10073E006414026EFF0E6514036E00C062F001C0F9
:10074E0063F002C064F003C065F004506210006EE6
:10075E0005506310016E06506410026E075065104E
:10076E00036E00C062F001C063F002C064F003C00B
:10077E0065F07F0E655C006E00C061F0010E656E67
:10078E0000C004F062C000F063C001F064C002F06B
:10079E0065C003F0045007E00036009001360236C3
:1007AE000336FF0FF8D700C062F001C063F002C03D
:1007BE0064F003C065F05EC0E1FF5FC0E2FF65500C
:1007CE00300FE66E5E4A5F2A800E6718006E800E4E
:1007DE00010A005C08E3800E060A006E800E6718A0
:1007EE00005C01E30AD05EC0E1FF5FC0E2FF2E0EA7
:1007FE00E66E5E4A5F2A010E666E060E616E6150EF
:10080E00000A54E0656A62C000F063C001F064C083
:10081E0002F065C003F00036009001360236033652
:10082E0000360090013602360336625000266350C1
:10083E000122645002226550032200C062F001C002
:10084E0063F002C064F003C065F062C000F063C0E4
:10085E0001F064C002F065C003F00036009001366E
:10086E000236033600C062F001C063F002C064F0CD
:10087E0003C065F05EC0E1FF5FC0E2FF6550300F60
:10088E00E66E5E4A5F2A6650000A0EE16706675002
:10089E00000A0AE15EC0E1FF5FC0E2FF2E0EE66EC7
:1008AE005E4A5F2A010E666E6106A9D7FF0E5E24B0
:1008BE00E96EFF0E5F20EA6EEE50300A05E1010E82
:1008CE005E5E000E5F5AF2D7FF0E5E24E96EFF0EDB
:1008DE005F20EA6EEE502E0A04E1010E5E5E000EFF
:1008EE005F5A6750000A41E05EC0E1FF5FC0E2FF61
:1008FE00650EE66E5E4A5F2A800E6718006E800EE9
:10090E00000A005C0BE25EC0E1FF5FC0E2FF2D0E4D
:10091E00E66E5E4A5F2A67500008676E67C061F038
:10092E00800E090A006E800E6718005C0EE20A0E39
:10093E00046E61C000F03FDC5EC0E1FF5FC0E2FF0D
:10094E000050300FE66E5E4A5F2A0A0E046E61C0DA
:10095E0000F031DC08C000F05EC0E1FF5FC0E2FFD6
:10096E000050300FE66E5E4A5F2A5EC0E1FF5FC048
:08097E00E2FFE66A006A1200C4
:100986000FD0800E5A6E19D0C00E5A6E16D0940E25
:100996005A6E13D0D40E5A6E10D0800E5A6E0DD0E9
:1009A6005A50010AEEE05A50020AEEE05A50030A83
:1009B600EEE05A50040AEEE0F0D75B04006E5A509F
:1009C600002600C05AF000C06CF039EC00F05990D7
:1009D6005E6A5E505C24E96E000E5D20EA6EEE52A1
:1009E6000BE05E505C24E96E000E5D20EA6EEECFF1
:0C09F60068F02BDD5E2AEDD7598012005E
:100A0200C26A151C006E0050C116070EC012C08EBD
:100A12005AC000F000360090003600900050C2121A
:100A2200C2801BDDC282C2A201D0FDD7C4CF01F0B9
:0E0A3200006AC3500012000E0112C2901200A2
:100A400038EC06F011DD6DDD21DD010E6C6E39EC48
:100A500000F00C0E6C6E39EC00F0010E5A6E010EB7
:100A60005B6E250E5C6E000E5D6E8DDF5A6AC9DF0F
:100A70006ADD00C041F001C042F002C043F003C093
:100A800044F0680E046EE80E056E1F0E066E770EBB
:100A9000076E31EC01F000C045F001C046F002C025
:100AA00047F003C048F000C05AF001C05BF002C03C
:100AB0005CF003C05DF0490E5E6E000E5F6E57DDA8
:100AC000020E5A6E010E5B6E310E5C6E000E5D6E94
:100AD0005ADF020E5A6E0A0E5B6E490E5C6E000EF5
:100AE0005D6E51DF020E5A6E0E0E5B6E160E5C6E60
:100AF000000E5D6E48DF060E0B6E130E0C6EAD0E13
:100B00000D6E0D2EFED70C2EFCD70B2EFAD7000043
:100B10000000000E046E000E056E200E066E7F0EA5
:100B2000076E45C000F046C001F047C002F048C063
:100B300003F027DC010ED8B0000E006E005203E077
:100B4000FF0E826E7FD0000E046E000E056E200E2A
:100B5000066E7F0E076E45C000F046C001F047C02C
:100B600002F048C003F00DDC000ED8B0010E006E9C
:100B700000521BE0000E046E000E056E200E066E85
:100B8000800E076E45C000F046C001F047C002F07D
:100B900048C003F0C1EC01F0010ED8B0000E006EA9
:100BA000005203E0FE0E826E4DD0000E046E000E69
:100BB000056E200E066E800E076E45C000F046C022
:100BC00001F047C002F048C003F0C1EC01F0000E94
:100BD000D8B0010E006E00521BE0CD0E046ECC0E9C
:100BE000056E140E066E810E076E45C000F046C0FD
:100BF00001F047C002F048C003F0C1EC01F0010E63
:100C0000D8B0000E006E005203E0FC0E826E1AD0C7
:100C1000CD0E046ECC0E056E140E066E810E076EA0
:100C200045C000F046C001F047C002F048C003F0E4
:100C3000C1EC01F0000ED8B0010E006E005202E0CF
:080C4000F80E826E13D7FFD7F6
:100C700010EE15F0280E006E010E016E480EF66E95
:0E0C80000C0EF76E000EF86E9BEC02F01200E8
:010C4800307B
:090C49005620202020202020006C
:020C5200300070
:040C54004E614E009F
:0C0C58004144202D2054454E53414F00D4
:080C640054454E53414F3A0084
:040C6C00494E4600A7
:020000040030CA
:0D000100021F1EFF8381FF0FC00FE00F40A4
:00000001FF
