:10000000E3EF05F00000000000EF00F0000000004A
:0A0010000000000000000000F3D71C
:06001C00000000001200CC
:100022000F0E0C6E470E0D6E0D2EFED70C2EFCD74A
:06003200000000001200B6
:0A003800210E0D6E0D2EFED71200F2
:100042000B840BAE2CEF00F0010E036E026A016A04
:0A005200006A0A360232FF0E1200A7
:08005C000AAE029E000E120024
:0E006400026A016A006A086A036A000E12004E
:1000720069BE02D0839E01D0838E69BC02D0839C6C
:1000820001D0838C69BA02D0839A01D0838A69B87D
:1000920002D0839801D083883EB002D0848001D000
:1000A20084908484BADF849469B602D0839E01D09E
:1000B200838E69B402D0839C01D0838C69B202D052
:1000C200839A01D0838A69B002D0839801D0838851
:1000D2003EB002D0848001D0849084849EDF8494D8
:0C00E2003EA002D09DDF01D0A6DF12007E
:1000EE000B820BAE81EF00F00368026801680068B6
:0800FE000A360232FF0E120067
:10010600086A096A000E0762036408EF01F00250EC
:1001160006180A6E075003267E0ED8A099EF00F047
:10012600035ED8B00CEF01F09DEF00F0035ED8A09F
:1001360010EF01F0028E068E02C00EF001C00BF029
:1001460000C00DF000500402F4CF0CF0015005027F
:10015600F4CF00F0F3CF08F00402F3500C26F4506D
:100166000822000E00220D500502F3500C26F45012
:100176000822000E002202500402F3500826F45012
:10018600002202500502016A000E0122F3500026E9
:10019600F45001220D500602F3500826F4500022B6
:1001A600026A000E012202220B500602F3500026BC
:1001B600F4500122000E02220E500602F3500126D0
:1001C600F450022202BEF0EF00F008360036013687
:1001D60002360306D8B410EF01F003EF01F0D88021
:1001E600800E08640030000E002201220222D8A0F0
:1001F60003EF01F0023201320032034A0CEF01F044
:100206000AAE029E000E12EF01F0010E28DF12EF79
:1002160001F0020E69DF12EF01F0040E0FDF12008B
:0C0226000E0E0D6E0D2EFED70000120013
:080232000B6A0B86FF0E12009F
:10023A000D6A086A0050D8B4000C04180A6E0ABE87
:10024A000D1E0B6A04AE02D0041E042A00AE02D0B0
:10025A00001E002A005004100A6E0ABE1FD0045065
:10026A00085E003600340836045008260036060EAA
:10027A000C6E00340836045000B0085E00A0082650
:10028A0000360C2EF6D700A008260BB015D00DAEFE
:10029A00000C001E002A081E082A000C04AE09D011
:1002AA0000BE04D00050086E006AF1D7006A002A26
:1002BA00000C001E0B2AD3D7082A0450085CD8A4C5
:0E02CA00E6D7086A002A00AEE2D7FF0C120049
:1002D80065C004F066C005F004C002F005C003F074
:1002E800044A052A67C000F068C001F0674A682A16
:1002F80000C0E9FF01C0EAFF02C0E1FF03C0E2FF5E
:10030800EECFE6FF02C0E9FF03C0EAFFEE5201E0CC
:0C031800E3D765C000F066C001F01200E1
:100324000C6A0E6A0250D8A4ABEF01F001C002F0CF
:1003340000C001F0006A0E860250D8A4ABEF01F0B1
:1003440001C002F0016A0E960E880250D8B4BDEFC7
:1003540001F00E50035ED8A4D8A0C2EF01F0D890EB
:1003640002BEC7EF01F0003601360236032EB2EFAB
:1003740001F0C2EF01F0010E0C6E72DECAEF01F063
:10038400020E0C6E5CDECAEF01F0040E0C6E64DE2D
:02039400120055
:100396000A6A0350D8A40A800750D8A40A820A50D1
:1003A600D8B42EEF02F0030AD8B4E7EF01F00AB092
:1003B600E2EF01F006AE2CEF02F02AEF02F002AEF9
:1003C6002AEF02F02CEF02F00250800B0A6E029E1A
:1003D6000650800B069E0A18D8B4F8EF01F00A50B2
:1003E600D8B42AEF02F02CEF02F00750035CD8B421
:1003F60002EF02F0D8A01EEF02F024EF02F0065042
:10040600025CD8B40CEF02F0D8A01EEF02F024EF85
:1004160002F00550015CD8B416EF02F0D8A01EEF2A
:1004260002F024EF02F00450005CD8B42EEF02F084
:10043600D8B024EF02F00A52D8B42CEF02F02AEF1B
:1004460002F00A52D8B42AEF02F02CEF02F0D8805C
:0E0456001200D8901200D880D8841200120034
:0C0464003E9065C069F003DE3E8012008F
:100470000E0EC16E966A956A946AFF0E826E849221
:06048000FF0E836E120066
:10048600969496909598959A959C959E849484902A
:10049600839E839C839A8398C1DDC0DDBFDD838AFA
:1004A60083888484B8DD8494B9DD8484B4DD84943F
:1004B600B5DD8484B0DD8494B1DD83988484ABDDBE
:1004C6008494ACDD8484A7DD8494839A838E8484AB
:1004D600A2DD8494A3DD839E838884849CDD84943A
:1004E6008398848498DD849499DD848494DD84944F
:1004F6008388848490DD849491DD839884848BDD65
:100506008494838E838C838A8388848484DD849414
:0605160085DD3E801200AD
:10051C00FF0E3A6EFF0E3B6EFF0E3C6EFF0E3D6EF5
:10052C00C26A191C006E0050C116070EC012C08E94
:04053C00C280120067
:100540000900F5CFE6FF0006FBE10106F9E1120024
:100550000FD0800E576E19D0C00E576E16D0940E65
:10056000576E13D0D40E576E10D0800E576E0DD02C
:100570005750010AEEE05750020AEEE05750030AC6
:10058000EEE05750040AEEE0F0D75804006E5750E2
:10059000002600C057F000C069F06BDD3E905B6A3A
:1005A0005B505924E96E000E5A20EA6EEE520BE0C1
:1005B0005B505924E96E000E5A20EA6EEECF65F0CA
:0A05C00051DF5B2AEDD73E801200E8
:1005CA00C26A191C006E0050C116070EC012C08EF6
:1005DA0057C000F000360090003600900050C2125A
:1005EA00C2801CDEC282C2A201D0FDD7C4CF01F0F4
:0E05FA00006AC3500012000E0112C2901200DF
:10060800636A646A57C05FF058C060F059C061F00F
:100618005AC062F06250FF0A08E16150FF0A05E122
:100628006050FF0A02E15F50FF0A0CE15BC065F011
:100638005CC066F0150E676E000E686E49DE030E2C
:10064800006EE9D1010E5D6E61AE0ED0800E6118AC
:10065800006E00C061F05D2A5BC0E1FF5CC0E2FF94
:100668002D0EE66E5B4A5C2A000E006E621808E1E9
:100678000050611805E10050601802E15F50000A5F
:100688000BE15BC065F05CC066F01E0E676E000E85
:10069800686E1EDE006ABFD16250FF0A08E1615031
:1006A800000A05E16050000A02E15F50000A0CE10F
:1006B8005BC065F05CC066F01A0E676E000E686E6F
:1006C80007DE5DC000F0A7D1000E046E000E056EB7
:1006D800000E066E7F0E076E5FC000F060C001F06E
:1006E80061C002F062C003F052DE010ED8B0000E05
:1006F800006E00521BE05FC000F060C001F061C0F6
:1007080002F062C003F0000E046E000E056E200EAB
:10071800066E820E076EF3DC00C05FF001C060F069
:1007280002C061F003C062F06406CED7000E046E0A
:10073800000E056E200E066E820E076E5FC000F07A
:1007480060C001F061C002F062C003F020DE000E5C
:10075800D8B0010E006E00521BE05FC000F060C010
:1007680001F061C002F062C003F0CD0E046ECC0E41
:10077800056E4C0E066E7B0E076EC1DC00C05FF086
:1007880001C060F002C061F003C062F0642ACED7F5
:10079800FF0E5F14086EFF0E6014096E7F0E611461
:1007A8000A6E000E62140B6E08C004F009C005F052
:1007B8000AC006F00BC007F004360490053606366A
:1007C8000736000E5F14006E000E6014016E000EF6
:1007D8006114026EFF0E6214036E00C05FF001C068
:1007E80060F002C061F003C062F004505F10006E58
:1007F80005506010016E06506110026E07506210BD
:10080800036E00C05FF001C060F002C061F003C079
:1008180062F07F0E625C006E00C05EF0010E626ED8
:1008280000C004F05FC000F060C001F061C002F0D9
:1008380062C003F0045007E000360090013602362B
:100848000336FF0FF8D700C05FF001C060F002C0A8
:1008580061F003C062F05BC0E1FF5CC0E2FF625080
:10086800300FE66E5B4A5C2A800E6418006E800EBC
:10087800010A005C08E3800E060A006E800E641808
:10088800005C01E30AD05BC0E1FF5CC0E2FF2E0E12
:10089800E66E5B4A5C2A010E636E060E5E6E5E5063
:1008A800000A54E0626A5FC000F060C001F061C0F5
:1008B80002F062C003F000360090013602360336BB
:1008C800003600900136023603365F50002660502D
:1008D8000122615002226250032200C05FF001C071
:1008E80060F002C061F003C062F05FC000F060C059
:1008F80001F061C002F062C003F0003600900136DA
:100908000236033600C05FF001C060F002C061F03B
:1009180003C062F05BC0E1FF5CC0E2FF6250300FD1
:10092800E66E5B4A5C2A6350000A0EE16406645076
:10093800000A0AE15BC0E1FF5CC0E2FF2E0EE66E32
:100948005B4A5C2A010E636E5E06A9D7FF0E5B2424
:10095800E96EFF0E5C20EA6EEE50300A05E1010EEA
:100968005B5E000E5C5AF2D7FF0E5B24E96EFF0E49
:100978005C20EA6EEE502E0A04E1010E5B5E000E6A
:100988005C5A6450000A41E05BC0E1FF5CC0E2FFD2
:10099800650EE66E5B4A5C2A800E6418006E800E57
:1009A800000A005C0BE25BC0E1FF5CC0E2FF2D0EB9
:1009B800E66E5B4A5C2A64500008646E64C05EF0B0
:1009C800800E090A006E800E6418005C0EE20A0EA2
:1009D800046E5EC000F02DDC5BC0E1FF5CC0E2FF8E
:1009E8000050300FE66E5B4A5C2A0A0E046E5EC049
:1009F80000F01FDC08C000F05BC0E1FF5CC0E2FF54
:100A08000050300FE66E5B4A5C2A5BC0E1FF5CC0B9
:080A1800E2FFE66A006A120029
:100A20000450000A12E10550000A0FE10650000AC6
:100A30000CE10750000A09E1FF0E006EFF0E016E87
:100A40007F0E026EFF0E036EA8D0086A096A075077
:100A5000D8B4BBEF05F00350D8B4C0EF05F0025096
:100A600006180A6E028E068E0E6A02C008F001C0D9
:100A70000CF000C00DF004500D5E0550D8A0053CF0
:100A80000C5E0650D8A0063C085E086A0C6A0D6A27
:100A9000D8A052EF05F0D89002320132003208326D
:100AA000010E0E6E0750035ED8A05FEF05F07E0EBC
:100AB0000E240326D8B0C5EF05F065EF05F07E0ED5
:100AC0000E240326D8A0CAEF05F0180E0B6E0D36C3
:100AD0000C3608360036013602360E360450005EFB
:100AE0000550D8A0053C015E0650D8A0063C025E29
:100AF00006340E120EA080EF05F00D808BEF05F08E
:100B0000045000260550D8B0053C01260650D8B048
:100B1000062802260D900B2E67EF05F0B1EF05F0C9
:100B2000D8900036013602360E360450005E05506D
:100B3000D8A0053C015E0650D8A0063C025E0634F3
:100B40000E10010B0D26D8B00C2AD8B4082AD8A450
:100B5000B1EF05F008320C320D32032AD8B4C5EFDC
:100B600005F00AAE089E0850026E0C50016E0D5042
:100B7000006ECDEF05F0010E19EC01F0CDEF05F0A0
:100B8000020E32EC00F0CDEF05F0040E77EC00F031
:0C0B9000CDEF05F0080E21EC00F0120083
:100B9C000050086E0150006E016A026A036A0B6A0B
:100BAC000C6A960E036E0A6A00C001F008C000F0D1
:0A0BBC00086A026A92EC01F01200D0
:100BC6007BEC07F0A8DC51DC5BDC010E696E39ECCE
:100BD60000F00C0E696E39EC00F0010E576E010E36
:100BE600586E200E596E000E5A6EAFDC576AEADC5C
:100BF600D2DF00C043F001C044F002C045F003C09C
:100C060046F0480E046EE10E056E020E066E810E6B
:100C1600076E03DF00C03FF001C040F002C041F0A4
:100C260003C042F000C057F001C058F002C059F0AE
:100C360003C05AF0470E5B6E000E5C6EE2DC020EDD
:100C4600576E010E586E340E596E000E5A6E7DDCCC
:100C5600020E576E060E586E470E596E000E5A6EED
:100C660074DC020E576E0B0E586E2D0E596E000E6A
:100C76005A6E6BDC060E0B6E130E0C6EAD0E0D6E01
:100C86000D2EFED70C2EFCD70B2EFAD70000000037
:100C9600000E046E000E056E7A0E066E840E076E4A
:100CA6003FC000F040C001F041C002F042C003F076
:100CB600CBEC01F0010ED8B0000E006E005223E01E
:100CC600829082828284060E0B6E130E0C6EAD0E1F
:100CD6000D6E0D2EFED70C2EFCD70B2EFAD700006C
:100CE6000000828082828284060E0B6E130E0C6ECA
:100CF600AD0E0D6E0D2EFED70C2EFCD70B2EFAD791
:100D060000000000E0D0000E046E000E056E7A0EA4
:100D1600066E840E076E3FC000F040C001F041C071
:100D260002F042C003F0CBEC01F0000ED8B0010E89
:100D3600006E00523BE0000E046E000E056E7A0E49
:100D4600066E850E076E3FC000F040C001F041C040
:100D560002F042C003F0CBEC01F0010ED8B0000E59
:100D6600006E005223E0828082928284060E0B6E11
:100D7600130E0C6EAD0E0D6E0D2EFED70C2EFCD77F
:100D86000B2EFAD700000000828082828284060E33
:100D96000B6E130E0C6EAD0E0D6E0D2EFED70C2EB9
:100DA600FCD70B2EFAD7000000008DD0000E046E83
:100DB600000E056E7A0E066E850E076E3FC000F0B9
:100DC60040C001F041C002F042C003F0CBEC01F09C
:100DD600000ED8B0010E006E00523BE0000E046E0D
:100DE600800E056E3B0E066E860E076E3FC000F047
:100DF60040C001F041C002F042C003F0CBEC01F06C
:100E0600010ED8B0000E006E005223E0828082826E
:100E16008294060E0B6E130E0C6EAD0E0D6E0D2E1D
:100E2600FED70C2EFCD70B2EFAD7000000008280CE
:100E360082828284060E0B6E130E0C6EAD0E0D6E44
:100E46000D2EFED70C2EFCD70B2EFAD70000000075
:100E56003AD0000E046E800E056E3B0E066E860EB0
:100E6600076E3FC000F040C001F041C002F042C032
:100E760003F0CBEC01F0000ED8B0010E006E00526C
:100E860022E0829082928294060E0B6E130E0C6EF6
:100E9600AD0E0D6E0D2EFED70C2EFCD70B2EFAD7EF
:100EA60000000000828082828284060E0B6E130E82
:100EB6000C6EAD0E0D6E0D2EFED70C2EFCD70B2E26
:0A0EC600FAD70000000092D6FFD713
:100EF60010EE15F0250E006E010E016ED00EF66E88
:0E0F06000E0EF76E000EF86EA0EC02F0120058
:040ED0004E614E0021
:010ED40030ED
:040ED500494E46003C
:020ED9003000E7
:0D0EDB0054454D5020434F4E54524F4C0093
:070EE8004320202020200020
:060EEF0054454D503A008D
:020000040030CA
:0D000100021F1EFF8381FF0FC00FE00F40A4
:00000001FF
