:1000000001EF02F00000000000EF00F0000000002F
:0A0010000000000000000000F3D71C
:10001C000F0E0C6E470E0D6E0D2EFED70C2EFCD750
:06002C00000000001200BC
:0A003200210E0D6E0D2EFED71200F8
:06003C00000000001200AC
:1000420054BE02D0839E01D0838E54BC02D0839CC6
:1000520001D0838C54BA02D0839A01D0838A54B8D7
:1000620002D0839801D0838842B002D0848001D02C
:1000720084908484E2DF849454B602D0839E01D0BB
:10008200838E54B402D0839C01D0838C54B202D0AC
:10009200839A01D0838A54B002D0839801D0838896
:1000A20042B002D0848001D084908484C6DF8494DC
:0C00B20042A002D0B2DF01D0BBDF120080
:1000BE00086A096A100E0C6E0134083609360450AF
:1000CE00085E0550D8A0053C095ED8B007D0045094
:1000DE0008260550D8B0053C0926D89000360136C2
:0600EE000C2EEAD71200FF
:1000F400516A050E515C0AE251504F24E16E000E24
:100104005020E26E200EE66E512AF3D751504F2450
:10011400E16E000E5020E26EE66A510651504F2403
:10012400526E000E5020536E0A0E046E000E056EC1
:100134004DC000F04EC001F0C0DF08C000F009C09F
:1001440001F0300E002652C0E1FF53C0E2FF00C0B0
:10015400E6FF0A0E046E000E056E4DC000F04EC0A0
:1001640001F0ABDF00C04DF001C04EF0000E0118ED
:1001740002E1000E001801E102D05106CFD71200AF
:0C01840042904DC054F05BDF428012003E
:0C0190000E0E0D6E0D2EFED700001200AA
:10019C00FF0E3E6EFF0E3F6EFF0E406EFF0E416E69
:1001AC00C26A2B1C006E0050C116070EC012C08E06
:0401BC00C2801200EB
:1001C0000900F5CFE6FF0006FBE10106F9E11200A8
:0C01D0000E0EC16E966A956A84921200B1
:1001DC00969496909598959A959C959E84948490D7
:1001EC00839E839C839A839813DF12DF11DF838AAB
:1001FC00838884841DDF84940BDF848419DF8494CA
:10020C0007DF848415DF849403DF8398848410DFF4
:10021C008494FEDE84840CDF8494839A838E84849D
:10022C0007DF8494F5DE839E8388848401DF8494C5
:10023C0083988484FDDE8494EBDE8484F9DE8494DC
:10024C0083888484F5DE8494E3DE83988484F0DEF2
:10025C008494838E838C838A83888484E9DE84945B
:06026C00D7DE4280120003
:10027200C26A2B1C006E0050C116070EC012C08E3F
:1002820043C000F000360090003600900050C212C9
:10029200C2807DDFC282C2A201D0FDD7C4CF01F0ED
:0E02A200006AC3500012000E0112C29012003A
:1002B000496A4A6A43C04BF044C04CF0800E44186F
:1002C000006E800E005C02E1000E435C0BE2010E4A
:1002D000496E000E4A6E435000084B6E44C04CF00D
:1002E000000E4C564BC04DF04CC04EF045C04FF088
:1002F00046C050F0FFDE060E476E000E486E000E40
:10030000006E4850005C02E14750000819E2475077
:100310004524E16E48504620E26E010E475C006EB7
:10032000000E4858016E00504524E96E01504620E9
:10033000EA6EEECFE6FF010E475E000E485ADFD7A9
:1003400045C0E1FF46C0E2FF200EE66E49504A106C
:100350001AE0476A486A47504524E96E48504620EB
:10036000EA6EEE50200A03E1474A482AF4D7010E0C
:10037000475E000E485A47504524E16E48504620DB
:08038000E26E2D0EE66E120084
:100388000FD0800E436E19D0C00E436E16D0940E57
:10039800436E13D0D40E436E10D0800E436E0DD032
:1003A8004350010AEEE04350020AEEE04350030ACC
:1003B800EEE04350040AEEE0F0D74404006E4350E8
:1003C800002600C043F000C054F037DE4290476A70
:1003D80047504524E96E000E4620EA6EEE520BE0C7
:1003E80047504524E96E000E4620EA6EEECF4DF0E8
:0A03F800C5DE472AEDD7428012004F
:1004020044EC02F0E4DEC9DEE8DE010E546E18DED2
:100412000C0E546E15DE010E436E010E446E1A0E62
:10042200456E000E466EAFDF436A22DF00C03CF02D
:1004320001C03DF000C043F001C044F02C0E456EF7
:10044200000E466E34DF020E436E010E446E150E30
:10045200456E000E466E97DF020E436E050E446E29
:0E0462002E0E456E000E466E8EDFDED7FFD7E3
:1004880010EE15F0170E006E010E016E700EF66E6E
:0E049800040EF76E000EF86EE0EC00F012009D
:05047000412F443A0099
:1004750056616C6F7220646120412F4420504943BE
:010485000076
:010486003045
:020000040030CA
:0D000100021F1EFF8381FF0FC00FE00F40A4
:00000001FF
