:1000000014EF06F00000000000EF00F00000000018
:0A0010000000000000000000F3D71C
:10001C000F0E0C6E470E0D6E0D2EFED70C2EFCD750
:06002C00000000001200BC
:06003200000000001200B6
:0A003800210E0D6E0D2EFED71200F2
:0E004200026A016A006A086A036A000E120070
:100050000B840BAE33EF00F0010E036E026A016AEF
:0A006000006A0A360232FF0E120099
:10006A000B820BAE3FEF00F003680268016800687C
:08007A000A360232FF0E1200EB
:10008200000189BF02D0839E01D0838E89BD02D038
:10009200839C01D0838C89BB02D0839A01D0838A4E
:1000A20089B902D0839801D0838876B002D0848047
:1000B20001D084908484BCDF849489B702D0839E6B
:1000C20001D0838E89B502D0839C01D0838C89B301
:1000D20002D0839A01D0838A89B102D0839801D059
:1000E200838876B002D0848001D084908484A0DF9B
:0E00F200849476A002D091DF01D09DDF120031
:080100000AAE029E000E12007F
:0C010800769085C089F0B9DF7680120087
:0C0114000E0E0D6E0D2EFED70000120026
:100120000A6A0350D8A40A800750D8A40A820A5049
:10013000D8B4F3EF00F0030AD8B4ACEF00F00AB083
:10014000A7EF00F006AEF1EF00F0EFEF00F002AE27
:10015000EFEF00F0F1EF00F00250800B0A6E029E0C
:100160000650800B069E0A18D8B4BDEF00F00A5066
:10017000D8B4EFEF00F0F1EF00F00750035CD8B413
:10018000C7EF00F0D8A0E3EF00F0E9EF00F0065071
:10019000025CD8B4D1EF00F0D8A0E3EF00F0E9EFB3
:1001A00000F00550015CD8B4DBEF00F0D8A0E3EF1D
:1001B00000F0E9EF00F00450005CD8B4F3EF00F079
:1001C000D8B0E9EF00F00A52D8B4F1EF00F0EFEF49
:1001D00000F00A52D8B4EFEF00F0F1EF00F0D88051
:0E01E0001200D8901200D880D88412001200AD
:1001EE000D6A086A0050D8B4000C04180A6E0ABED4
:1001FE000D1E0B6A04AE02D0041E042A00AE02D0FD
:10020E00001E002A005004100A6E0ABE1FD00450B1
:10021E00085E003600340836045008260036060EF6
:10022E000C6E00340836045000B0085E00A008269C
:10023E0000360C2EF6D700A008260BB015D00DAE4A
:10024E00000C001E002A081E082A000C04AE09D05D
:10025E0000BE04D00050086E006AF1D7006A002A72
:10026E00000C001E0B2AD3D7082A0450085CD8A411
:0E027E00E6D7086A002A00AEE2D7FF0C120095
:10028C00086A096A000E07620364CBEF01F00250A2
:10029C0006180A6E075003267E0ED8A05CEF01F0FC
:1002AC00035ED8B0CFEF01F060EF01F0035ED8A091
:1002BC00D3EF01F0028E068E02C00EF001C00BF0DF
:1002CC0000C00DF000500402F4CF0CF001500502F8
:1002DC00F4CF00F0F3CF08F00402F3500C26F450E6
:1002EC000822000E00220D500502F3500C26F4508B
:1002FC000822000E002202500402F3500826F4508B
:10030C00002202500502016A000E0122F350002661
:10031C00F45001220D500602F3500826F45000222E
:10032C00026A000E012202220B500602F350002634
:10033C00F4500122000E02220E500602F350012648
:10034C00F450022202BEB3EF01F00836003601363B
:10035C0002360306D8B4D3EF01F0C6EF01F0D88013
:10036C00800E08640030000E002201220222D8A068
:10037C00C6EF01F0023201320032034ACFEF01F036
:10038C000AAE029E000ED5EF01F0010E54DED5EF41
:10039C0001F0020E64DED5EF01F0040E53DE120004
:0803AC000B6A0B86FF0E120024
:1003B4000C6A0E6A0250D8A4F3EF01F001C002F0F7
:1003C40000C001F0006A0E860250D8A4F3EF01F0D9
:1003D40001C002F0016A0E960E880250D8B405EFEF
:1003E40002F00E50035ED8A4D8A00AEF02F0D89011
:1003F40002BE0FEF02F0003601360236032EFAEF8A
:1004040001F00AEF02F0010E0C6E19DE12EF02F099
:10041400020E0C6E1BDE12EF02F0040E0C6E6EDE8A
:020424001200C4
:1004260085C004F086C005F004C002F005C003F0E4
:10043600044A052A87C000F088C001F00001874BF6
:10044600882B00C0E9FF01C0EAFF02C0E1FF03C03C
:10045600E2FFEECFE6FF02C0E9FF03C0EAFFEE527D
:0E04660001E0E2D785C000F086C001F0120070
:10047400969496909598959A959C959E849484903C
:10048400839E839C839A8398C7DDC6DDC5DD838AFA
:1004940083888484CCDD8494BFDD8484C8DD849423
:1004A400BBDD8484C4DD8494B7DD83988484BFDD9C
:1004B4008494B2DD8484BBDD8494839A838E8484A3
:1004C400B6DD8494A9DD839E83888484B0DD84941E
:1004D40083988484ACDD84949FDD8484A8DD849433
:1004E40083888484A4DD849497DD839884849FDD49
:1004F4008494838E838C838A8388848498DD849413
:060504008BDD7680120081
:10050A00C26A521C006E0050C116070EC012C08E7D
:10051A0077C000F000360090003600900050C212FA
:10052A00C280F3DDC282C2A201D0FDD7C4CF01F0DE
:0E053A00006AC3500012000E0112C29012009F
:100548000900F5CFE6FF0006FBE10106F9E112001C
:10055800FF0E596EFF0E5A6EFF0E5B6EFF0E5C6E3D
:10056800C26A521C006E0050C116070EC012C08E1F
:04057800C28012002B
:10057C000E0EC16E966A956A010E936E946A849201
:04058C00836A12006C
:100590000450000A12E10550000A0FE10650000A5B
:1005A0000CE10750000A09E1FF0E006EFF0E016E1C
:1005B0007F0E026EFF0E036EA4D0086A096A075010
:1005C000D8B473EF03F00350D8B477EF03F00250C0
:1005D00006180A6E028E068E0E6A02C008F001C06E
:1005E0000CF000C00DF004500D5E0550D8A0053C85
:1005F0000C5E0650D8A0063C085E086A0C6A0D6ABC
:10060000D8A00AEF03F0D89002320132003208324B
:10061000010E0E6E0750035ED8A017EF03F07E0E9A
:100620000E240326D8B07BEF03F01DEF03F07E0EFF
:100630000E240326D8A07FEF03F0180E0B6E0D36A4
:100640000C3608360036013602360E360450005E8F
:100650000550D8A0053C015E0650D8A0063C025EBD
:1006600006340E120EA038EF03F00D8043EF03F0B6
:10067000045000260550D8B0053C01260650D8B0DD
:10068000062802260D900B2E1FEF03F069EF03F0F2
:10069000D8900036013602360E360450005E055002
:1006A000D8A0053C015E0650D8A0063C025E063488
:1006B0000E10010B0D26D8B00C2AD8B4082AD8A4E5
:1006C00069EF03F008320C320D32032AD8B47BEF05
:1006D00003F00AAE089E0850026E0C50016E0D50D9
:1006E000006E81EF03F0010E61DE81EF03F0020E78
:1006F000A8DC81EF03F0040EB8DC81EF03F0080EF4
:04070000A7DC120060
:100704000001836B846B77C07FF078C080F079C080
:1007140081F07AC082F08251FF0A08E18151FF0A18
:1007240005E18051FF0A02E17F50FF0A0CE17BC022
:1007340085F07CC086F0530E876F000E886F71DEE3
:10074400030E006EEBD1010E7D6E81AF0ED0800ED4
:100754008119006E00C081F07D2A7BC0E1FF7CC05E
:10076400E2FF2D0EE66E7B4A7C2A000E006E821993
:1007740008E10050811905E10050801902E17F5021
:10078400000A0BE17BC085F07CC086F0500E876FB9
:10079400000E886F46DE006AC1D18251FF0A08E16B
:1007A4008151000A05E18051000A02E17F50000AEC
:1007B4000CE17BC085F07CC086F04C0E876F000E88
:1007C400886F2FDE7DC000F0A9D1000E046E000EEC
:1007D400056E000E066E7F0E076E7FC000F080C0AF
:1007E40001F081C002F082C003F098DC010ED8B0A1
:1007F400000E006E00521BE07FC000F080C001F0CC
:1008040081C002F082C003F0000E046E000E056E7B
:10081400200E066E820E076E37DD00C07FF001C029
:1008240080F002C081F003C082F08407CED7000EAE
:10083400046E000E056E200E066E820E076E7FC0DB
:1008440000F080C001F081C002F082C003F066DCD9
:10085400000ED8B0010E006E00521BE07FC000F005
:1008640080C001F081C002F082C003F0CD0E046E9E
:10087400CC0E056E4C0E066E7B0E076E05DD00C0B9
:100884007FF001C080F002C081F003C082F0842BAD
:10089400CED7FF0E7F14086EFF0E8015096E7F0EF3
:1008A40081150A6E000E82150B6E08C004F009C093
:1008B40005F00AC006F00BC007F0043604900536B4
:1008C40006360736000E7F14006E000E8015016E8A
:1008D400000E8115026EFF0E8215036E00C07FF0BC
:1008E40001C080F002C081F003C082F004507F1088
:1008F400006E05508011016E06508111026E075082
:100904008211036E00C07FF001C080F002C081F04C
:1009140003C082F07F0E825D006E00C07EF0010E87
:10092400826F00C004F07FC000F080C001F081C07D
:1009340002F082C003F0045007E000360090013654
:1009440002360336FF0FF8D700C07FF001C080F0F5
:1009540002C081F003C082F07BC0E1FF7CC0E2FFF3
:100964008251300FE66E7B4A7C2A800E8419006E19
:10097400800E010A005C08E3800E060A006E800EF9
:100984008419005C01E30AD07BC0E1FF7CC0E2FF74
:100994002E0EE66E7B4A7C2A010E836F060E7E6E57
:1009A4007E50000A54E0826B7FC000F080C001F0EA
:1009B40081C002F082C003F0003600900136023696
:1009C4000336003600900136023603367F50002687
:1009D40080510122815102228251032200C07FF002
:1009E40001C080F002C081F003C082F07FC000F03B
:1009F40080C001F081C002F082C003F00036009094
:100A040001360236033600C07FF001C080F002C018
:100A140081F003C082F07BC0E1FF7CC0E2FF825121
:100A2400300FE66E7B4A7C2A8351000A0EE184076C
:100A34008451000A0AE17BC0E1FF7CC0E2FF2E0E74
:100A4400E66E7B4A7C2A010E836F7E06A9D7FF0ED1
:100A54007B24E96EFF0E7C20EA6EEE50300A05E13D
:100A6400010E7B5E000E7C5AF2D7FF0E7B24E96EEA
:100A7400FF0E7C20EA6EEE502E0A04E1010E7B5E2E
:100A8400000E7C5A8451000A43E07BC0E1FF7CC025
:100A9400E2FF650EE66E7B4A7C2A800E8419006EA6
:100AA400800E000A005C0BE27BC0E1FF7CC0E2FF29
:100AB4002D0EE66E7B4A7C2A84510008846F84C024
:100AC4007EF0800E090A006E800E8419005C0FE22D
:100AD4000A0E046E7EC000F0F7EC00F07BC0E1FF6C
:100AE4007CC0E2FF0050300FE66E7B4A7C2A0A0E7F
:100AF400046E7EC000F0F7EC00F008C000F07BC08C
:100B0400E1FF7CC0E2FF0050300FE66E7B4A7C2A96
:0E0B14007BC0E1FF7CC0E2FFE66A006A1200CF
:100B22000FD0800E776E19D0C00E776E16D0940E4D
:100B3200776E13D0D40E776E10D0800E776E0DD0F4
:100B42007750010AEEE07750020AEEE07750030A8E
:100B5200EEE07750040AEEE0F0D77804006E7750AA
:100B6200002600C077F000C089F041EC00F07690DA
:100B72007B6A7B507924E96E000E7A20EA6EEE528F
:100B82000CE07B507924E96E000E7A20EA6EEECFFB
:0E0B920085F084EC00F07B2AECD77680120010
:100BA0000FD0800E776E19D0C00E776E16D0940ECF
:100BB000776E13D0D40E776E10D0800E776E0DD076
:100BC0007750010AEEE07750020AEEE07750030A10
:100BD000EEE07750040AEEE0F0D77804006E77502C
:100BE000002600C077F0768000C089F041EC00F06C
:0E0BF000769079C089F041EC00F0768012001A
:100BFE000050086E0150006E016A026A036A0B6AA9
:100C0E000C6A960E036E0A6A00C001F008C000F06E
:0A0C1E00086A026ADAEC01F0120025
:100C280091EC07F095DCA6DC21DC010E0001896F50
:100C380041EC00F00C0E896F41EC00F0776A61DC42
:100C4800DADF00C072F001C073F002C074F003C0B4
:100C580075F0EC0E046E510E056E080E066E820ECF
:100C6800076E92DC00C06EF001C06FF002C070F039
:100C780003C071F000C077F001C078F002C079F0CD
:100C880003C07AF05E0E7B6E000E7C6E37DD81B09D
:100C980033D0010E776E030E786E230E796E000E38
:100CA8007A6E3BDF020E776E010E786E440E796E17
:100CB800000E7A6E32DF020E776E080E786E5E0EC8
:100CC800796E000E7A6E29DF020E776E0C0E786E42
:100CD8003B0E796E000E7A6E20DF060E0B6E130E39
:100CE8000C6EAD0E0D6E0D2EFED70C2EFCD70B2EF6
:100CF800FAD7000000003BD081A039D0010E776EF2
:100D0800040E786E300E796E000E7A6E06DF020ED3
:100D1800776E010E786E1A0E796E000E7A6EFDDE11
:100D2800020E776E040E786E57C079F035DF020E2A
:100D3800776E050E786E150E796E000E7A6EEDDE02
:100D4800020E776E090E786E58C079F025DF020E14
:100D5800776E0A0E786E1E0E796E000E7A6EDDDEE4
:100D6800020E776E0E0E786E5DC079F015DF000EFC
:100D7800046E000E056E200E066E830E076E6EC0A2
:100D880000F06FC001F070C002F071C003F090EC89
:100D980000F0010ED8B0000E006E005209E0310ECE
:100DA800576E300E586E300E5D6EFE0E826E92D00B
:100DB800000E046E000E056E200E066E830E076E82
:100DC8006EC000F06FC001F070C002F071C003F097
:100DD80090EC00F0000ED8B0010E006E005221E039
:100DE800000E046E000E056E700E066E840E076E01
:100DF8006EC000F06FC001F070C002F071C003F067
:100E080090EC00F0010ED8B0000E006E005209E020
:100E1800300E576E310E586E300E5D6EFD0E826EBE
:100E280059D0000E046E000E056E700E066E840E0C
:100E3800076E6EC000F06FC001F070C002F071C0A4
:100E480003F090EC00F0000ED8B0010E006E0052D6
:100E580021E0000E046E000E056E340E066E850E3F
:100E6800076E6EC000F06FC001F070C002F071C074
:100E780003F090EC00F0010ED8B0000E006E0052A6
:100E880009E0310E576E310E586E300E5D6EFC0E55
:100E9800826E20D0000E046E000E056E340E066EB3
:100EA800850E076E6EC000F06FC001F070C002F0D2
:100EB80071C003F090EC00F0000ED8B0010E006E87
:100EC800005208E0300E576E300E586E310E5D6ECF
:080ED800FB0E826EB3D6FFD7BA
:100F220010EE15F0420E006E010E016EE00EF66E2E
:0E0F32000E0EF76E000EF86EA4EC02F0120028
:050EE0002044323A003D
:040EE50044313A005A
:050EE9002044333A0033
:0D0EEE0053454E534F5220464F524345008E
:0B0EFB004C4544205354415455530013
:090F0600206B6720202020200050
:080F0F00464F5243453A200011
:040F1700494E4600F9
:020F1B003000A4
:010F1D0030A3
:040F1E004E614E00D2
:020000040030CA
:0D000100021F1EFF8381FF0FC00FE00F40A4
:00000001FF
